{
  "contractName": "Fingerprints",
  "abi": [
    {
      "inputs": [
        {
          "internalType": "string",
          "name": "uri_",
          "type": "string"
        }
      ],
      "stateMutability": "nonpayable",
      "type": "constructor"
    },
    {
      "anonymous": false,
      "inputs": [
        {
          "indexed": true,
          "internalType": "address",
          "name": "account",
          "type": "address"
        },
        {
          "indexed": true,
          "internalType": "address",
          "name": "operator",
          "type": "address"
        },
        {
          "indexed": false,
          "internalType": "bool",
          "name": "approved",
          "type": "bool"
        }
      ],
      "name": "ApprovalForAll",
      "type": "event"
    },
    {
      "anonymous": false,
      "inputs": [
        {
          "indexed": true,
          "internalType": "address",
          "name": "operator",
          "type": "address"
        },
        {
          "indexed": true,
          "internalType": "address",
          "name": "from",
          "type": "address"
        },
        {
          "indexed": true,
          "internalType": "address",
          "name": "to",
          "type": "address"
        },
        {
          "indexed": false,
          "internalType": "uint256[]",
          "name": "ids",
          "type": "uint256[]"
        },
        {
          "indexed": false,
          "internalType": "uint256[]",
          "name": "values",
          "type": "uint256[]"
        }
      ],
      "name": "TransferBatch",
      "type": "event"
    },
    {
      "anonymous": false,
      "inputs": [
        {
          "indexed": true,
          "internalType": "address",
          "name": "operator",
          "type": "address"
        },
        {
          "indexed": true,
          "internalType": "address",
          "name": "from",
          "type": "address"
        },
        {
          "indexed": true,
          "internalType": "address",
          "name": "to",
          "type": "address"
        },
        {
          "indexed": false,
          "internalType": "uint256",
          "name": "id",
          "type": "uint256"
        },
        {
          "indexed": false,
          "internalType": "uint256",
          "name": "value",
          "type": "uint256"
        }
      ],
      "name": "TransferSingle",
      "type": "event"
    },
    {
      "anonymous": false,
      "inputs": [
        {
          "indexed": false,
          "internalType": "string",
          "name": "value",
          "type": "string"
        },
        {
          "indexed": true,
          "internalType": "uint256",
          "name": "id",
          "type": "uint256"
        }
      ],
      "name": "URI",
      "type": "event"
    },
    {
      "inputs": [
        {
          "internalType": "address",
          "name": "account",
          "type": "address"
        },
        {
          "internalType": "uint256",
          "name": "id",
          "type": "uint256"
        }
      ],
      "name": "balanceOf",
      "outputs": [
        {
          "internalType": "uint256",
          "name": "",
          "type": "uint256"
        }
      ],
      "stateMutability": "view",
      "type": "function",
      "constant": true
    },
    {
      "inputs": [
        {
          "internalType": "address[]",
          "name": "accounts",
          "type": "address[]"
        },
        {
          "internalType": "uint256[]",
          "name": "ids",
          "type": "uint256[]"
        }
      ],
      "name": "balanceOfBatch",
      "outputs": [
        {
          "internalType": "uint256[]",
          "name": "",
          "type": "uint256[]"
        }
      ],
      "stateMutability": "view",
      "type": "function",
      "constant": true
    },
    {
      "inputs": [
        {
          "internalType": "address",
          "name": "account",
          "type": "address"
        },
        {
          "internalType": "address",
          "name": "operator",
          "type": "address"
        }
      ],
      "name": "isApprovedForAll",
      "outputs": [
        {
          "internalType": "bool",
          "name": "",
          "type": "bool"
        }
      ],
      "stateMutability": "view",
      "type": "function",
      "constant": true
    },
    {
      "inputs": [
        {
          "internalType": "address",
          "name": "from",
          "type": "address"
        },
        {
          "internalType": "address",
          "name": "to",
          "type": "address"
        },
        {
          "internalType": "uint256[]",
          "name": "ids",
          "type": "uint256[]"
        },
        {
          "internalType": "uint256[]",
          "name": "amounts",
          "type": "uint256[]"
        },
        {
          "internalType": "bytes",
          "name": "data",
          "type": "bytes"
        }
      ],
      "name": "safeBatchTransferFrom",
      "outputs": [],
      "stateMutability": "nonpayable",
      "type": "function"
    },
    {
      "inputs": [
        {
          "internalType": "address",
          "name": "from",
          "type": "address"
        },
        {
          "internalType": "address",
          "name": "to",
          "type": "address"
        },
        {
          "internalType": "uint256",
          "name": "id",
          "type": "uint256"
        },
        {
          "internalType": "uint256",
          "name": "amount",
          "type": "uint256"
        },
        {
          "internalType": "bytes",
          "name": "data",
          "type": "bytes"
        }
      ],
      "name": "safeTransferFrom",
      "outputs": [],
      "stateMutability": "nonpayable",
      "type": "function"
    },
    {
      "inputs": [
        {
          "internalType": "address",
          "name": "operator",
          "type": "address"
        },
        {
          "internalType": "bool",
          "name": "approved",
          "type": "bool"
        }
      ],
      "name": "setApprovalForAll",
      "outputs": [],
      "stateMutability": "nonpayable",
      "type": "function"
    },
    {
      "inputs": [
        {
          "internalType": "bytes4",
          "name": "interfaceId",
          "type": "bytes4"
        }
      ],
      "name": "supportsInterface",
      "outputs": [
        {
          "internalType": "bool",
          "name": "",
          "type": "bool"
        }
      ],
      "stateMutability": "view",
      "type": "function",
      "constant": true
    },
    {
      "inputs": [
        {
          "internalType": "uint256",
          "name": "",
          "type": "uint256"
        }
      ],
      "name": "uri",
      "outputs": [
        {
          "internalType": "string",
          "name": "",
          "type": "string"
        }
      ],
      "stateMutability": "view",
      "type": "function",
      "constant": true
    },
    {
      "inputs": [
        {
          "internalType": "address",
          "name": "account",
          "type": "address"
        },
        {
          "internalType": "string",
          "name": "name",
          "type": "string"
        },
        {
          "internalType": "string",
          "name": "category",
          "type": "string"
        },
        {
          "internalType": "uint256",
          "name": "amount",
          "type": "uint256"
        },
        {
          "internalType": "uint256",
          "name": "price",
          "type": "uint256"
        },
        {
          "internalType": "string",
          "name": "uri",
          "type": "string"
        }
      ],
      "name": "mint",
      "outputs": [
        {
          "internalType": "uint256",
          "name": "",
          "type": "uint256"
        }
      ],
      "stateMutability": "nonpayable",
      "type": "function"
    },
    {
      "inputs": [
        {
          "internalType": "address payable",
          "name": "owner",
          "type": "address"
        },
        {
          "internalType": "uint256",
          "name": "id",
          "type": "uint256"
        }
      ],
      "name": "buy_nft",
      "outputs": [],
      "stateMutability": "payable",
      "type": "function",
      "payable": true
    },
    {
      "inputs": [
        {
          "internalType": "uint256",
          "name": "id",
          "type": "uint256"
        }
      ],
      "name": "metadataOf",
      "outputs": [
        {
          "internalType": "string",
          "name": "name",
          "type": "string"
        },
        {
          "internalType": "string",
          "name": "category",
          "type": "string"
        },
        {
          "internalType": "uint256",
          "name": "amount",
          "type": "uint256"
        },
        {
          "internalType": "uint256",
          "name": "price",
          "type": "uint256"
        },
        {
          "internalType": "string",
          "name": "uri",
          "type": "string"
        }
      ],
      "stateMutability": "view",
      "type": "function",
      "constant": true
    },
    {
      "inputs": [],
      "name": "showSender",
      "outputs": [
        {
          "internalType": "address",
          "name": "",
          "type": "address"
        }
      ],
      "stateMutability": "view",
      "type": "function",
      "constant": true
    },
    {
      "inputs": [],
      "name": "totalTokens",
      "outputs": [
        {
          "internalType": "uint256",
          "name": "",
          "type": "uint256"
        }
      ],
      "stateMutability": "view",
      "type": "function",
      "constant": true
    }
  ],
  "bytecode": "0x608060405260006003553480156200001657600080fd5b5060405162003a5938038062003a5983398181016040528101906200003c919062000194565b806200004e816200005660201b60201c565b50506200030a565b80600290805190602001906200006e92919062000072565b5050565b828054620000809062000276565b90600052602060002090601f016020900481019282620000a45760008555620000f0565b82601f10620000bf57805160ff1916838001178555620000f0565b82800160010185558215620000f0579182015b82811115620000ef578251825591602001919060010190620000d2565b5b509050620000ff919062000103565b5090565b5b808211156200011e57600081600090555060010162000104565b5090565b60006200013962000133846200020d565b620001d9565b9050828152602081018484840111156200015257600080fd5b6200015f84828562000240565b509392505050565b600082601f8301126200017957600080fd5b81516200018b84826020860162000122565b91505092915050565b600060208284031215620001a757600080fd5b600082015167ffffffffffffffff811115620001c257600080fd5b620001d08482850162000167565b91505092915050565b6000604051905081810181811067ffffffffffffffff82111715620002035762000202620002db565b5b8060405250919050565b600067ffffffffffffffff8211156200022b576200022a620002db565b5b601f19601f8301169050602081019050919050565b60005b838110156200026057808201518184015260208101905062000243565b8381111562000270576000848401525b50505050565b600060028204905060018216806200028f57607f821691505b60208210811415620002a657620002a5620002ac565b5b50919050565b7f4e487b7100000000000000000000000000000000000000000000000000000000600052602260045260246000fd5b7f4e487b7100000000000000000000000000000000000000000000000000000000600052604160045260246000fd5b61373f806200031a6000396000f3fe6080604052600436106100c15760003560e01c80634e1273f41161007f578063a22cb46511610059578063a22cb465146102a8578063a4d64ff4146102d1578063e985e9c5146102fc578063f242432a14610339576100c1565b80634e1273f4146102245780637e1c0c0914610261578063a0376e591461028c576100c1565b8062fdd58e146100c657806301ffc9a7146101035780630e89341c146101405780630ef7cc8e1461017d57806326debcf3146101be5780632eb2c2d6146101fb575b600080fd5b3480156100d257600080fd5b506100ed60048036038101906100e891906124f6565b610362565b6040516100fa9190613182565b60405180910390f35b34801561010f57600080fd5b5061012a6004803603810190610125919061259e565b61042b565b6040516101379190612efd565b60405180910390f35b34801561014c57600080fd5b50610167600480360381019061016291906125f0565b61050d565b6040516101749190612f18565b60405180910390f35b34801561018957600080fd5b506101a4600480360381019061019f91906125f0565b6105a1565b6040516101b5959493929190612f3a565b60405180910390f35b3480156101ca57600080fd5b506101e560048036038101906101e09190612425565b6107c2565b6040516101f29190613182565b60405180910390f35b34801561020757600080fd5b50610222600480360381019061021d919061229b565b6109e5565b005b34801561023057600080fd5b5061024b60048036038101906102469190612532565b610ddb565b6040516102589190612ea4565b60405180910390f35b34801561026d57600080fd5b50610276610f8c565b6040516102839190613182565b60405180910390f35b6102a660048036038101906102a19190612223565b610f96565b005b3480156102b457600080fd5b506102cf60048036038101906102ca91906123e9565b61133b565b005b3480156102dd57600080fd5b506102e66114bc565b6040516102f39190612d6f565b60405180910390f35b34801561030857600080fd5b50610323600480360381019061031e919061225f565b6114c4565b6040516103309190612efd565b60405180910390f35b34801561034557600080fd5b50610360600480360381019061035b919061235a565b611558565b005b60008073ffffffffffffffffffffffffffffffffffffffff168373ffffffffffffffffffffffffffffffffffffffff1614156103d3576040517f08c379a00000000000000000000000000000000000000000000000000000000081526004016103ca90612fe2565b60405180910390fd5b60008083815260200190815260200160002060008473ffffffffffffffffffffffffffffffffffffffff1673ffffffffffffffffffffffffffffffffffffffff16815260200190815260200160002054905092915050565b60007fd9b67a26000000000000000000000000000000000000000000000000000000007bffffffffffffffffffffffffffffffffffffffffffffffffffffffff1916827bffffffffffffffffffffffffffffffffffffffffffffffffffffffff191614806104f657507f0e89341c000000000000000000000000000000000000000000000000000000007bffffffffffffffffffffffffffffffffffffffffffffffffffffffff1916827bffffffffffffffffffffffffffffffffffffffffffffffffffffffff1916145b80610506575061050582611870565b5b9050919050565b60606002805461051c906134ba565b80601f0160208091040260200160405190810160405280929190818152602001828054610548906134ba565b80156105955780601f1061056a57610100808354040283529160200191610595565b820191906000526020600020905b81548152906001019060200180831161057857829003601f168201915b50505050509050919050565b60608060008060606000600460008881526020019081526020016000206040518060a00160405290816000820180546105d9906134ba565b80601f0160208091040260200160405190810160405280929190818152602001828054610605906134ba565b80156106525780601f1061062757610100808354040283529160200191610652565b820191906000526020600020905b81548152906001019060200180831161063557829003601f168201915b5050505050815260200160018201805461066b906134ba565b80601f0160208091040260200160405190810160405280929190818152602001828054610697906134ba565b80156106e45780601f106106b9576101008083540402835291602001916106e4565b820191906000526020600020905b8154815290600101906020018083116106c757829003601f168201915b505050505081526020016002820180546106fd906134ba565b80601f0160208091040260200160405190810160405280929190818152602001828054610729906134ba565b80156107765780601f1061074b57610100808354040283529160200191610776565b820191906000526020600020905b81548152906001019060200180831161075957829003601f168201915b5050505050815260200160038201548152602001600482015481525050905080600001518160200151826060015183608001518460400151955095509550955095505091939590929450565b60006107cd866118da565b1561080d576040517f08c379a0000000000000000000000000000000000000000000000000000000008152600401610804906130c2565b60405180910390fd5b6001600360008282546108209190613320565b925050819055506108d0600460006003548152602001908152602001600020600001805461084d906134ba565b80601f0160208091040260200160405190810160405280929190818152602001828054610879906134ba565b80156108c65780601f1061089b576101008083540402835291602001916108c6565b820191906000526020600020905b8154815290600101906020018083116108a957829003601f168201915b50505050506118da565b61090f576040517f08c379a0000000000000000000000000000000000000000000000000000000008152600401610906906130a2565b60405180910390fd5b6040518060a00160405280878152602001868152602001838152602001858152602001848152506004600060035481526020019081526020016000206000820151816000019080519060200190610967929190611f06565b506020820151816001019080519060200190610984929190611f06565b5060408201518160020190805190602001906109a1929190611f06565b5060608201518160030155608082015181600401559050506109d68760035486604051806020016040528060008152506118e7565b60035490509695505050505050565b8151835114610a29576040517f08c379a0000000000000000000000000000000000000000000000000000000008152600401610a2090613122565b60405180910390fd5b600073ffffffffffffffffffffffffffffffffffffffff168473ffffffffffffffffffffffffffffffffffffffff161415610a99576040517f08c379a0000000000000000000000000000000000000000000000000000000008152600401610a9090613042565b60405180910390fd5b610aa1611a7d565b73ffffffffffffffffffffffffffffffffffffffff168573ffffffffffffffffffffffffffffffffffffffff161480610ae75750610ae685610ae1611a7d565b6114c4565b5b610b26576040517f08c379a0000000000000000000000000000000000000000000000000000000008152600401610b1d90613062565b60405180910390fd5b6000610b30611a7d565b9050610b40818787878787611a85565b60005b8451811015610d46576000858281518110610b87577f4e487b7100000000000000000000000000000000000000000000000000000000600052603260045260246000fd5b602002602001015190506000858381518110610bcc577f4e487b7100000000000000000000000000000000000000000000000000000000600052603260045260246000fd5b60200260200101519050600080600084815260200190815260200160002060008b73ffffffffffffffffffffffffffffffffffffffff1673ffffffffffffffffffffffffffffffffffffffff16815260200190815260200160002054905081811015610c6d576040517f08c379a0000000000000000000000000000000000000000000000000000000008152600401610c6490613082565b60405180910390fd5b8181610c799190613376565b60008085815260200190815260200160002060008c73ffffffffffffffffffffffffffffffffffffffff1673ffffffffffffffffffffffffffffffffffffffff168152602001908152602001600020819055508160008085815260200190815260200160002060008b73ffffffffffffffffffffffffffffffffffffffff1673ffffffffffffffffffffffffffffffffffffffff1681526020019081526020016000206000828254610d2b9190613320565b9250508190555050505080610d3f906134ec565b9050610b43565b508473ffffffffffffffffffffffffffffffffffffffff168673ffffffffffffffffffffffffffffffffffffffff168273ffffffffffffffffffffffffffffffffffffffff167f4a39dc06d4c0dbc64b70af90fd698a233a518aa5d07e595d983b8c0526c8f7fb8787604051610dbd929190612ec6565b60405180910390a4610dd3818787878787611a8d565b505050505050565b60608151835114610e21576040517f08c379a0000000000000000000000000000000000000000000000000000000008152600401610e1890613102565b60405180910390fd5b6000835167ffffffffffffffff811115610e64577f4e487b7100000000000000000000000000000000000000000000000000000000600052604160045260246000fd5b604051908082528060200260200182016040528015610e925781602001602082028036833780820191505090505b50905060005b8451811015610f8157610f2b858281518110610edd577f4e487b7100000000000000000000000000000000000000000000000000000000600052603260045260246000fd5b6020026020010151858381518110610f1e577f4e487b7100000000000000000000000000000000000000000000000000000000600052603260045260246000fd5b6020026020010151610362565b828281518110610f64577f4e487b7100000000000000000000000000000000000000000000000000000000600052603260045260246000fd5b60200260200101818152505080610f7a906134ec565b9050610e98565b508091505092915050565b6000600354905090565b6000600460008381526020019081526020016000206040518060a0016040529081600082018054610fc6906134ba565b80601f0160208091040260200160405190810160405280929190818152602001828054610ff2906134ba565b801561103f5780601f106110145761010080835404028352916020019161103f565b820191906000526020600020905b81548152906001019060200180831161102257829003601f168201915b50505050508152602001600182018054611058906134ba565b80601f0160208091040260200160405190810160405280929190818152602001828054611084906134ba565b80156110d15780601f106110a6576101008083540402835291602001916110d1565b820191906000526020600020905b8154815290600101906020018083116110b457829003601f168201915b505050505081526020016002820180546110ea906134ba565b80601f0160208091040260200160405190810160405280929190818152602001828054611116906134ba565b80156111635780601f1061113857610100808354040283529160200191611163565b820191906000526020600020905b81548152906001019060200180831161114657829003601f168201915b5050505050815260200160038201548152602001600482015481525050905061118f81600001516118da565b156111cf576040517f08c379a00000000000000000000000000000000000000000000000000000000081526004016111c690613002565b60405180910390fd5b8060800151341015611216576040517f08c379a000000000000000000000000000000000000000000000000000000000815260040161120d90613162565b60405180910390fd5b3073ffffffffffffffffffffffffffffffffffffffff1663f242432a84338560016040518563ffffffff1660e01b81526004016112569493929190612d8a565b600060405180830381600087803b15801561127057600080fd5b505af1158015611284573d6000803e3d6000fd5b505050508273ffffffffffffffffffffffffffffffffffffffff166108fc82608001519081150290604051600060405180830381858888f193505050501580156112d2573d6000803e3d6000fd5b508060800151341115611336573373ffffffffffffffffffffffffffffffffffffffff166108fc8260800151346113099190613376565b9081150290604051600060405180830381858888f19350505050158015611334573d6000803e3d6000fd5b505b505050565b8173ffffffffffffffffffffffffffffffffffffffff1661135a611a7d565b73ffffffffffffffffffffffffffffffffffffffff1614156113b1576040517f08c379a00000000000000000000000000000000000000000000000000000000081526004016113a8906130e2565b60405180910390fd5b80600160006113be611a7d565b73ffffffffffffffffffffffffffffffffffffffff1673ffffffffffffffffffffffffffffffffffffffff16815260200190815260200160002060008473ffffffffffffffffffffffffffffffffffffffff1673ffffffffffffffffffffffffffffffffffffffff16815260200190815260200160002060006101000a81548160ff0219169083151502179055508173ffffffffffffffffffffffffffffffffffffffff1661146b611a7d565b73ffffffffffffffffffffffffffffffffffffffff167f17307eab39ab6107e8899845ad3d59bd9653f200f220920489ca2b5937696c31836040516114b09190612efd565b60405180910390a35050565b600033905090565b6000600160008473ffffffffffffffffffffffffffffffffffffffff1673ffffffffffffffffffffffffffffffffffffffff16815260200190815260200160002060008373ffffffffffffffffffffffffffffffffffffffff1673ffffffffffffffffffffffffffffffffffffffff16815260200190815260200160002060009054906101000a900460ff16905092915050565b600073ffffffffffffffffffffffffffffffffffffffff168473ffffffffffffffffffffffffffffffffffffffff1614156115c8576040517f08c379a00000000000000000000000000000000000000000000000000000000081526004016115bf90613042565b60405180910390fd5b6115d0611a7d565b73ffffffffffffffffffffffffffffffffffffffff168573ffffffffffffffffffffffffffffffffffffffff161480611616575061161585611610611a7d565b6114c4565b5b611655576040517f08c379a000000000000000000000000000000000000000000000000000000000815260040161164c90613022565b60405180910390fd5b600061165f611a7d565b905061167f81878761167088611c5d565b61167988611c5d565b87611a85565b600080600086815260200190815260200160002060008873ffffffffffffffffffffffffffffffffffffffff1673ffffffffffffffffffffffffffffffffffffffff16815260200190815260200160002054905083811015611716576040517f08c379a000000000000000000000000000000000000000000000000000000000815260040161170d90613082565b60405180910390fd5b83816117229190613376565b60008087815260200190815260200160002060008973ffffffffffffffffffffffffffffffffffffffff1673ffffffffffffffffffffffffffffffffffffffff168152602001908152602001600020819055508360008087815260200190815260200160002060008873ffffffffffffffffffffffffffffffffffffffff1673ffffffffffffffffffffffffffffffffffffffff16815260200190815260200160002060008282546117d49190613320565b925050819055508573ffffffffffffffffffffffffffffffffffffffff168773ffffffffffffffffffffffffffffffffffffffff168373ffffffffffffffffffffffffffffffffffffffff167fc3d58168c5ae7397731d063d5bbf3d657854427343f4c083240f7aacaa2d0f62888860405161185192919061319d565b60405180910390a4611867828888888888611d23565b50505050505050565b60007f01ffc9a7000000000000000000000000000000000000000000000000000000007bffffffffffffffffffffffffffffffffffffffffffffffffffffffff1916827bffffffffffffffffffffffffffffffffffffffffffffffffffffffff1916149050919050565b6000808251149050919050565b600073ffffffffffffffffffffffffffffffffffffffff168473ffffffffffffffffffffffffffffffffffffffff161415611957576040517f08c379a000000000000000000000000000000000000000000000000000000000815260040161194e90613142565b60405180910390fd5b6000611961611a7d565b90506119828160008761197388611c5d565b61197c88611c5d565b87611a85565b8260008086815260200190815260200160002060008773ffffffffffffffffffffffffffffffffffffffff1673ffffffffffffffffffffffffffffffffffffffff16815260200190815260200160002060008282546119e19190613320565b925050819055508473ffffffffffffffffffffffffffffffffffffffff16600073ffffffffffffffffffffffffffffffffffffffff168273ffffffffffffffffffffffffffffffffffffffff167fc3d58168c5ae7397731d063d5bbf3d657854427343f4c083240f7aacaa2d0f628787604051611a5f92919061319d565b60405180910390a4611a7681600087878787611d23565b5050505050565b600033905090565b505050505050565b611aac8473ffffffffffffffffffffffffffffffffffffffff16611ef3565b15611c55578373ffffffffffffffffffffffffffffffffffffffff1663bc197c8187878686866040518663ffffffff1660e01b8152600401611af2959493929190612de2565b602060405180830381600087803b158015611b0c57600080fd5b505af1925050508015611b3d57506040513d601f19601f82011682018060405250810190611b3a91906125c7565b60015b611bcc57611b496135e0565b80611b545750611b91565b806040517f08c379a0000000000000000000000000000000000000000000000000000000008152600401611b889190612f18565b60405180910390fd5b6040517f08c379a0000000000000000000000000000000000000000000000000000000008152600401611bc390612fa2565b60405180910390fd5b63bc197c8160e01b7bffffffffffffffffffffffffffffffffffffffffffffffffffffffff1916817bffffffffffffffffffffffffffffffffffffffffffffffffffffffff191614611c53576040517f08c379a0000000000000000000000000000000000000000000000000000000008152600401611c4a90612fc2565b60405180910390fd5b505b505050505050565b60606000600167ffffffffffffffff811115611ca2577f4e487b7100000000000000000000000000000000000000000000000000000000600052604160045260246000fd5b604051908082528060200260200182016040528015611cd05781602001602082028036833780820191505090505b5090508281600081518110611d0e577f4e487b7100000000000000000000000000000000000000000000000000000000600052603260045260246000fd5b60200260200101818152505080915050919050565b611d428473ffffffffffffffffffffffffffffffffffffffff16611ef3565b15611eeb578373ffffffffffffffffffffffffffffffffffffffff1663f23a6e6187878686866040518663ffffffff1660e01b8152600401611d88959493929190612e4a565b602060405180830381600087803b158015611da257600080fd5b505af1925050508015611dd357506040513d601f19601f82011682018060405250810190611dd091906125c7565b60015b611e6257611ddf6135e0565b80611dea5750611e27565b806040517f08c379a0000000000000000000000000000000000000000000000000000000008152600401611e1e9190612f18565b60405180910390fd5b6040517f08c379a0000000000000000000000000000000000000000000000000000000008152600401611e5990612fa2565b60405180910390fd5b63f23a6e6160e01b7bffffffffffffffffffffffffffffffffffffffffffffffffffffffff1916817bffffffffffffffffffffffffffffffffffffffffffffffffffffffff191614611ee9576040517f08c379a0000000000000000000000000000000000000000000000000000000008152600401611ee090612fc2565b60405180910390fd5b505b505050505050565b600080823b905060008111915050919050565b828054611f12906134ba565b90600052602060002090601f016020900481019282611f345760008555611f7b565b82601f10611f4d57805160ff1916838001178555611f7b565b82800160010185558215611f7b579182015b82811115611f7a578251825591602001919060010190611f5f565b5b509050611f889190611f8c565b5090565b5b80821115611fa5576000816000905550600101611f8d565b5090565b6000611fbc611fb7846131f7565b6131c6565b90508083825260208201905082856020860282011115611fdb57600080fd5b60005b8581101561200b5781611ff188826120fd565b845260208401935060208301925050600181019050611fde565b5050509392505050565b600061202861202384613223565b6131c6565b9050808382526020820190508285602086028201111561204757600080fd5b60005b85811015612077578161205d888261220e565b84526020840193506020830192505060018101905061204a565b5050509392505050565b600061209461208f8461324f565b6131c6565b9050828152602081018484840111156120ac57600080fd5b6120b7848285613478565b509392505050565b60006120d26120cd8461327f565b6131c6565b9050828152602081018484840111156120ea57600080fd5b6120f5848285613478565b509392505050565b60008135905061210c81613696565b92915050565b600081359050612121816136ad565b92915050565b600082601f83011261213857600080fd5b8135612148848260208601611fa9565b91505092915050565b600082601f83011261216257600080fd5b8135612172848260208601612015565b91505092915050565b60008135905061218a816136c4565b92915050565b60008135905061219f816136db565b92915050565b6000815190506121b4816136db565b92915050565b600082601f8301126121cb57600080fd5b81356121db848260208601612081565b91505092915050565b600082601f8301126121f557600080fd5b81356122058482602086016120bf565b91505092915050565b60008135905061221d816136f2565b92915050565b6000806040838503121561223657600080fd5b600061224485828601612112565b92505060206122558582860161220e565b9150509250929050565b6000806040838503121561227257600080fd5b6000612280858286016120fd565b9250506020612291858286016120fd565b9150509250929050565b600080600080600060a086880312156122b357600080fd5b60006122c1888289016120fd565b95505060206122d2888289016120fd565b945050604086013567ffffffffffffffff8111156122ef57600080fd5b6122fb88828901612151565b935050606086013567ffffffffffffffff81111561231857600080fd5b61232488828901612151565b925050608086013567ffffffffffffffff81111561234157600080fd5b61234d888289016121ba565b9150509295509295909350565b600080600080600060a0868803121561237257600080fd5b6000612380888289016120fd565b9550506020612391888289016120fd565b94505060406123a28882890161220e565b93505060606123b38882890161220e565b925050608086013567ffffffffffffffff8111156123d057600080fd5b6123dc888289016121ba565b9150509295509295909350565b600080604083850312156123fc57600080fd5b600061240a858286016120fd565b925050602061241b8582860161217b565b9150509250929050565b60008060008060008060c0878903121561243e57600080fd5b600061244c89828a016120fd565b965050602087013567ffffffffffffffff81111561246957600080fd5b61247589828a016121e4565b955050604087013567ffffffffffffffff81111561249257600080fd5b61249e89828a016121e4565b94505060606124af89828a0161220e565b93505060806124c089828a0161220e565b92505060a087013567ffffffffffffffff8111156124dd57600080fd5b6124e989828a016121e4565b9150509295509295509295565b6000806040838503121561250957600080fd5b6000612517858286016120fd565b92505060206125288582860161220e565b9150509250929050565b6000806040838503121561254557600080fd5b600083013567ffffffffffffffff81111561255f57600080fd5b61256b85828601612127565b925050602083013567ffffffffffffffff81111561258857600080fd5b61259485828601612151565b9150509250929050565b6000602082840312156125b057600080fd5b60006125be84828501612190565b91505092915050565b6000602082840312156125d957600080fd5b60006125e7848285016121a5565b91505092915050565b60006020828403121561260257600080fd5b60006126108482850161220e565b91505092915050565b60006126258383612d51565b60208301905092915050565b61263a81613430565b82525050565b612649816133aa565b82525050565b600061265a826132bf565b61266481856132ed565b935061266f836132af565b8060005b838110156126a05781516126878882612619565b9750612692836132e0565b925050600181019050612673565b5085935050505092915050565b6126b6816133ce565b82525050565b60006126c7826132ca565b6126d181856132fe565b93506126e1818560208601613487565b6126ea816135c2565b840191505092915050565b6126fe81613442565b82525050565b600061270f826132d5565b612719818561330f565b9350612729818560208601613487565b612732816135c2565b840191505092915050565b600061274a60348361330f565b91507f455243313135353a207472616e7366657220746f206e6f6e204552433131353560008301527f526563656976657220696d706c656d656e7465720000000000000000000000006020830152604082019050919050565b60006127b060288361330f565b91507f455243313135353a204552433131353552656365697665722072656a6563746560008301527f6420746f6b656e730000000000000000000000000000000000000000000000006020830152604082019050919050565b6000612816602b8361330f565b91507f455243313135353a2062616c616e636520717565727920666f7220746865207a60008301527f65726f20616464726573730000000000000000000000000000000000000000006020830152604082019050919050565b600061287c60258361330f565b91507f4d79455243313135353a204e4654207769746820696420646f6573206e6f742060008301527f65786973740000000000000000000000000000000000000000000000000000006020830152604082019050919050565b60006128e260298361330f565b91507f455243313135353a2063616c6c6572206973206e6f74206f776e6572206e6f7260008301527f20617070726f76656400000000000000000000000000000000000000000000006020830152604082019050919050565b600061294860258361330f565b91507f455243313135353a207472616e7366657220746f20746865207a65726f20616460008301527f64726573730000000000000000000000000000000000000000000000000000006020830152604082019050919050565b60006129ae60328361330f565b91507f455243313135353a207472616e736665722063616c6c6572206973206e6f742060008301527f6f776e6572206e6f7220617070726f76656400000000000000000000000000006020830152604082019050919050565b6000612a14602a8361330f565b91507f455243313135353a20696e73756666696369656e742062616c616e636520666f60008301527f72207472616e73666572000000000000000000000000000000000000000000006020830152604082019050919050565b6000612a7a60248361330f565b91507f4d79455243313135353a204e4654207769746820696420616c7265616479206560008301527f78697374000000000000000000000000000000000000000000000000000000006020830152604082019050919050565b6000612ae060238361330f565b91507f4d79455243313135353a204e4654204e616d652063616e6e6f7420626520656d60008301527f70747900000000000000000000000000000000000000000000000000000000006020830152604082019050919050565b6000612b466000836132fe565b9150600082019050919050565b6000612b6060298361330f565b91507f455243313135353a2073657474696e6720617070726f76616c2073746174757360008301527f20666f722073656c6600000000000000000000000000000000000000000000006020830152604082019050919050565b6000612bc660298361330f565b91507f455243313135353a206163636f756e747320616e6420696473206c656e67746860008301527f206d69736d6174636800000000000000000000000000000000000000000000006020830152604082019050919050565b6000612c2c60288361330f565b91507f455243313135353a2069647320616e6420616d6f756e7473206c656e6774682060008301527f6d69736d617463680000000000000000000000000000000000000000000000006020830152604082019050919050565b6000612c9260218361330f565b91507f455243313135353a206d696e7420746f20746865207a65726f2061646472657360008301527f73000000000000000000000000000000000000000000000000000000000000006020830152604082019050919050565b6000612cf860348361330f565b91507f4d79455243313135353a205472616e7366657272656420455448206973206c6560008301527f7373207468616e207072696365206f66204e46540000000000000000000000006020830152604082019050919050565b612d5a81613426565b82525050565b612d6981613426565b82525050565b6000602082019050612d846000830184612640565b92915050565b600060a082019050612d9f6000830187612631565b612dac6020830186612640565b612db96040830185612d60565b612dc660608301846126f5565b8181036080830152612dd781612b39565b905095945050505050565b600060a082019050612df76000830188612640565b612e046020830187612640565b8181036040830152612e16818661264f565b90508181036060830152612e2a818561264f565b90508181036080830152612e3e81846126bc565b90509695505050505050565b600060a082019050612e5f6000830188612640565b612e6c6020830187612640565b612e796040830186612d60565b612e866060830185612d60565b8181036080830152612e9881846126bc565b90509695505050505050565b60006020820190508181036000830152612ebe818461264f565b905092915050565b60006040820190508181036000830152612ee0818561264f565b90508181036020830152612ef4818461264f565b90509392505050565b6000602082019050612f1260008301846126ad565b92915050565b60006020820190508181036000830152612f328184612704565b905092915050565b600060a0820190508181036000830152612f548188612704565b90508181036020830152612f688187612704565b9050612f776040830186612d60565b612f846060830185612d60565b8181036080830152612f968184612704565b90509695505050505050565b60006020820190508181036000830152612fbb8161273d565b9050919050565b60006020820190508181036000830152612fdb816127a3565b9050919050565b60006020820190508181036000830152612ffb81612809565b9050919050565b6000602082019050818103600083015261301b8161286f565b9050919050565b6000602082019050818103600083015261303b816128d5565b9050919050565b6000602082019050818103600083015261305b8161293b565b9050919050565b6000602082019050818103600083015261307b816129a1565b9050919050565b6000602082019050818103600083015261309b81612a07565b9050919050565b600060208201905081810360008301526130bb81612a6d565b9050919050565b600060208201905081810360008301526130db81612ad3565b9050919050565b600060208201905081810360008301526130fb81612b53565b9050919050565b6000602082019050818103600083015261311b81612bb9565b9050919050565b6000602082019050818103600083015261313b81612c1f565b9050919050565b6000602082019050818103600083015261315b81612c85565b9050919050565b6000602082019050818103600083015261317b81612ceb565b9050919050565b60006020820190506131976000830184612d60565b92915050565b60006040820190506131b26000830185612d60565b6131bf6020830184612d60565b9392505050565b6000604051905081810181811067ffffffffffffffff821117156131ed576131ec613593565b5b8060405250919050565b600067ffffffffffffffff82111561321257613211613593565b5b602082029050602081019050919050565b600067ffffffffffffffff82111561323e5761323d613593565b5b602082029050602081019050919050565b600067ffffffffffffffff82111561326a57613269613593565b5b601f19601f8301169050602081019050919050565b600067ffffffffffffffff82111561329a57613299613593565b5b601f19601f8301169050602081019050919050565b6000819050602082019050919050565b600081519050919050565b600081519050919050565b600081519050919050565b6000602082019050919050565b600082825260208201905092915050565b600082825260208201905092915050565b600082825260208201905092915050565b600061332b82613426565b915061333683613426565b9250827fffffffffffffffffffffffffffffffffffffffffffffffffffffffffffffffff0382111561336b5761336a613535565b5b828201905092915050565b600061338182613426565b915061338c83613426565b92508282101561339f5761339e613535565b5b828203905092915050565b60006133b582613406565b9050919050565b60006133c782613406565b9050919050565b60008115159050919050565b60007fffffffff0000000000000000000000000000000000000000000000000000000082169050919050565b600073ffffffffffffffffffffffffffffffffffffffff82169050919050565b6000819050919050565b600061343b82613454565b9050919050565b600061344d82613426565b9050919050565b600061345f82613466565b9050919050565b600061347182613406565b9050919050565b82818337600083830152505050565b60005b838110156134a557808201518184015260208101905061348a565b838111156134b4576000848401525b50505050565b600060028204905060018216806134d257607f821691505b602082108114156134e6576134e5613564565b5b50919050565b60006134f782613426565b91507fffffffffffffffffffffffffffffffffffffffffffffffffffffffffffffffff82141561352a57613529613535565b5b600182019050919050565b7f4e487b7100000000000000000000000000000000000000000000000000000000600052601160045260246000fd5b7f4e487b7100000000000000000000000000000000000000000000000000000000600052602260045260246000fd5b7f4e487b7100000000000000000000000000000000000000000000000000000000600052604160045260246000fd5b6000601f19601f8301169050919050565b60008160e01c9050919050565b600060443d10156135f057613693565b60046000803e6136016000516135d3565b6308c379a081146136125750613693565b60405160043d036004823e80513d602482011167ffffffffffffffff8211171561363e57505050613693565b808201805167ffffffffffffffff81111561365d575050505050613693565b8060208301013d850181111561367857505050505050613693565b613681826135c2565b60208401016040528296505050505050505b90565b61369f816133aa565b81146136aa57600080fd5b50565b6136b6816133bc565b81146136c157600080fd5b50565b6136cd816133ce565b81146136d857600080fd5b50565b6136e4816133da565b81146136ef57600080fd5b50565b6136fb81613426565b811461370657600080fd5b5056fea26469706673582212209fffc0202e22ba5903ba7c2f71be7391bdadb3cc07d23bb051d4c335b375314964736f6c63430008000033",
  "immutableReferences": {},
  "source": "// SPDX-License-Identifier: MIT\n\npragma solidity ^0.8.0;\n\n\nimport \"../Standards/ERC1155_FULL/ERC1155FULL.sol\";\n\n/**\n *\n * @dev Our own Implementation of the basic standard multi-token.\n *\n * Saurabh Santhosh\n */\ncontract Fingerprints is ERC1155 {\n\n    uint256 private _totalTokens = 0;\n\n    // Mapping from token ID to metadata\n    mapping(uint256 => NFTDetails) private _metadata;\n\n    struct NFTDetails {\n        string name;\n        string category;\n        string uri;\n        uint256 amount;\n        uint256 price;\n    }\n\n    constructor (string memory uri_) ERC1155(uri_) {\n\n    }\n\n    /**\n     *\n     * The mint function of the NFT.\n     * Used to create new NFTs in the system\n     */\n    function mint(address account, string memory name, string memory category, uint256 amount, uint256 price, string memory uri) public virtual returns (uint256) {\n        require(!_isEmpty(name), \"MyERC1155: NFT Name cannot be empty\");\n        _totalTokens += 1;\n        require(_isEmpty(_metadata[_totalTokens].name), \"MyERC1155: NFT with id already exist\");\n        _metadata[_totalTokens] = NFTDetails(name, category, uri, amount, price);\n        _mint(account, _totalTokens, amount, \"\");\n        return _totalTokens;\n    }\n\n    function buy_nft(address payable owner, uint256 id) public payable {\n        NFTDetails memory details = _metadata[id];\n        require(!_isEmpty(details.name), \"MyERC1155: NFT with id does not exist\");\n        require(msg.value >= details.price, \"MyERC1155: Transferred ETH is less than price of NFT\");\n        this.safeTransferFrom(owner, msg.sender, id, 1, \"\");\n        owner.transfer(details.price);\n        if (msg.value > details.price) {\n            payable(msg.sender).transfer(msg.value - details.price);\n        }\n    }\n\n    /**\n     *\n     * Return the metadata of a given NFT\n     */\n    function metadataOf(uint256 id) public view virtual returns (string memory name, string memory category, uint256 amount, uint256 price, string memory uri) {\n        NFTDetails memory details = _metadata[id];\n        return (details.name, details.category, details.amount, details.price, details.uri);\n    }\n\n    function showSender() public view returns (address) {\n        return msg.sender;\n    }\n\n    function totalTokens() public view returns (uint256) {\n        return _totalTokens;\n    }\n\n    function _isEmpty(string memory str) private pure returns (bool) {\n        return bytes(str).length == 0;\n    }\n}\n",
  "sourcePath": "/Users/abhijathbenhur/Documents/Codebase/nftdapp/fingerprints/src/contracts/Fingerprints/Fingerprints.sol",
  "compiler": {
    "name": "solc",
    "version": "0.8.0+commit.c7dfd78e.Emscripten.clang"
  },
  "schemaVersion": "3.3.4",
  "updatedAt": "2021-04-12T14:24:10.013Z",
  "networkType": "ethereum",
  "devdoc": {
    "details": "Our own Implementation of the basic standard multi-token. Saurabh Santhosh",
    "kind": "dev",
    "methods": {
      "balanceOf(address,uint256)": {
        "details": "See {IERC1155-balanceOf}. Requirements: - `account` cannot be the zero address."
      },
      "balanceOfBatch(address[],uint256[])": {
        "details": "See {IERC1155-balanceOfBatch}. Requirements: - `accounts` and `ids` must have the same length."
      },
      "isApprovedForAll(address,address)": {
        "details": "See {IERC1155-isApprovedForAll}."
      },
      "safeBatchTransferFrom(address,address,uint256[],uint256[],bytes)": {
        "details": "See {IERC1155-safeBatchTransferFrom}."
      },
      "safeTransferFrom(address,address,uint256,uint256,bytes)": {
        "details": "See {IERC1155-safeTransferFrom}."
      },
      "setApprovalForAll(address,bool)": {
        "details": "See {IERC1155-setApprovalForAll}."
      },
      "supportsInterface(bytes4)": {
        "details": "See {IERC165-supportsInterface}."
      },
      "uri(uint256)": {
        "details": "See {IERC1155MetadataURI-uri}. This implementation returns the same URI for *all* token types. It relies on the token type ID substitution mechanism https://eips.ethereum.org/EIPS/eip-1155#metadata[defined in the EIP]. Clients calling this function must replace the `\\{id\\}` substring with the actual token type ID."
      }
    },
    "version": 1
  },
  "userdoc": {
    "kind": "user",
    "methods": {
      "metadataOf(uint256)": {
        "notice": "Return the metadata of a given NFT"
      },
      "mint(address,string,string,uint256,uint256,string)": {
        "notice": "The mint function of the NFT. Used to create new NFTs in the system"
      }
    },
    "version": 1
  }
}