{
  "contractName": "Ideas",
  "address": "0x1515645660CA0e03b5944609De19a568C31d039F",
  "network": 42,
  "abi": [
    {
      "inputs": [
        {
          "internalType": "address",
          "name": "_contractOwner",
          "type": "address"
        },
        {
          "internalType": "address",
          "name": "_treasurer",
          "type": "address"
        },
        {
          "internalType": "address",
          "name": "_admin",
          "type": "address"
        },
        {
          "internalType": "address",
          "name": "_programmer",
          "type": "address"
        },
        {
          "internalType": "address",
          "name": "_devops",
          "type": "address"
        },
        {
          "internalType": "uint256",
          "name": "_publish_fees",
          "type": "uint256"
        },
        {
          "internalType": "string",
          "name": "_baseURI",
          "type": "string"
        }
      ],
      "stateMutability": "nonpayable",
      "type": "constructor"
    },
    {
      "anonymous": false,
      "inputs": [
        {
          "indexed": true,
          "internalType": "address",
          "name": "owner",
          "type": "address"
        },
        {
          "indexed": true,
          "internalType": "address",
          "name": "approved",
          "type": "address"
        },
        {
          "indexed": true,
          "internalType": "uint256",
          "name": "tokenId",
          "type": "uint256"
        }
      ],
      "name": "Approval",
      "type": "event"
    },
    {
      "anonymous": false,
      "inputs": [
        {
          "indexed": true,
          "internalType": "address",
          "name": "owner",
          "type": "address"
        },
        {
          "indexed": true,
          "internalType": "address",
          "name": "operator",
          "type": "address"
        },
        {
          "indexed": false,
          "internalType": "bool",
          "name": "approved",
          "type": "bool"
        }
      ],
      "name": "ApprovalForAll",
      "type": "event"
    },
    {
      "anonymous": false,
      "inputs": [
        {
          "indexed": true,
          "internalType": "address",
          "name": "from",
          "type": "address"
        },
        {
          "indexed": true,
          "internalType": "address",
          "name": "to",
          "type": "address"
        },
        {
          "indexed": true,
          "internalType": "uint256",
          "name": "tokenId",
          "type": "uint256"
        }
      ],
      "name": "Transfer",
      "type": "event"
    },
    {
      "inputs": [],
      "name": "publish_fees",
      "outputs": [
        {
          "internalType": "uint256",
          "name": "",
          "type": "uint256"
        }
      ],
      "stateMutability": "view",
      "type": "function",
      "constant": true
    },
    {
      "inputs": [],
      "name": "name",
      "outputs": [
        {
          "internalType": "string",
          "name": "",
          "type": "string"
        }
      ],
      "stateMutability": "view",
      "type": "function",
      "constant": true
    },
    {
      "inputs": [],
      "name": "symbol",
      "outputs": [
        {
          "internalType": "string",
          "name": "",
          "type": "string"
        }
      ],
      "stateMutability": "view",
      "type": "function",
      "constant": true
    },
    {
      "inputs": [
        {
          "internalType": "uint256",
          "name": "tokenId",
          "type": "uint256"
        }
      ],
      "name": "tokenURI",
      "outputs": [
        {
          "internalType": "string",
          "name": "",
          "type": "string"
        }
      ],
      "stateMutability": "view",
      "type": "function",
      "constant": true
    },
    {
      "inputs": [],
      "name": "getContractOwner",
      "outputs": [
        {
          "internalType": "address",
          "name": "",
          "type": "address"
        }
      ],
      "stateMutability": "view",
      "type": "function",
      "constant": true
    },
    {
      "inputs": [],
      "name": "getTreasurer",
      "outputs": [
        {
          "internalType": "address",
          "name": "",
          "type": "address"
        }
      ],
      "stateMutability": "view",
      "type": "function",
      "constant": true
    },
    {
      "inputs": [],
      "name": "getAdmin",
      "outputs": [
        {
          "internalType": "address",
          "name": "",
          "type": "address"
        }
      ],
      "stateMutability": "view",
      "type": "function",
      "constant": true
    },
    {
      "inputs": [],
      "name": "getDevops",
      "outputs": [
        {
          "internalType": "address",
          "name": "",
          "type": "address"
        }
      ],
      "stateMutability": "view",
      "type": "function",
      "constant": true
    },
    {
      "inputs": [
        {
          "internalType": "uint256",
          "name": "_txn_fees_percent",
          "type": "uint256"
        }
      ],
      "name": "set_txn_fees_percent",
      "outputs": [],
      "stateMutability": "nonpayable",
      "type": "function"
    },
    {
      "inputs": [
        {
          "internalType": "uint256",
          "name": "_publish_fees",
          "type": "uint256"
        }
      ],
      "name": "set_publish_fees",
      "outputs": [],
      "stateMutability": "nonpayable",
      "type": "function"
    },
    {
      "inputs": [
        {
          "internalType": "address",
          "name": "_contractOwner",
          "type": "address"
        }
      ],
      "name": "set_contract_owner",
      "outputs": [],
      "stateMutability": "nonpayable",
      "type": "function"
    },
    {
      "inputs": [
        {
          "internalType": "address",
          "name": "_treasurer",
          "type": "address"
        }
      ],
      "name": "set_treasurer",
      "outputs": [],
      "stateMutability": "nonpayable",
      "type": "function"
    },
    {
      "inputs": [
        {
          "internalType": "address",
          "name": "_admin",
          "type": "address"
        }
      ],
      "name": "set_admin",
      "outputs": [],
      "stateMutability": "nonpayable",
      "type": "function"
    },
    {
      "inputs": [
        {
          "internalType": "address",
          "name": "_programmer",
          "type": "address"
        }
      ],
      "name": "set_programmer",
      "outputs": [],
      "stateMutability": "nonpayable",
      "type": "function"
    },
    {
      "inputs": [
        {
          "internalType": "address",
          "name": "_devops",
          "type": "address"
        }
      ],
      "name": "set_devops",
      "outputs": [],
      "stateMutability": "nonpayable",
      "type": "function"
    },
    {
      "inputs": [
        {
          "internalType": "string",
          "name": "_baseURI",
          "type": "string"
        }
      ],
      "name": "set_baseURI",
      "outputs": [],
      "stateMutability": "nonpayable",
      "type": "function"
    },
    {
      "inputs": [
        {
          "internalType": "uint256",
          "name": "tokenId",
          "type": "uint256"
        },
        {
          "internalType": "uint256",
          "name": "_price",
          "type": "uint256"
        }
      ],
      "name": "set_price",
      "outputs": [],
      "stateMutability": "nonpayable",
      "type": "function"
    },
    {
      "inputs": [
        {
          "internalType": "address",
          "name": "_address",
          "type": "address"
        },
        {
          "internalType": "string",
          "name": "_name",
          "type": "string"
        }
      ],
      "name": "register_user",
      "outputs": [],
      "stateMutability": "payable",
      "type": "function",
      "payable": true
    },
    {
      "inputs": [
        {
          "internalType": "string",
          "name": "_name",
          "type": "string"
        },
        {
          "internalType": "string",
          "name": "hash",
          "type": "string"
        },
        {
          "internalType": "uint256",
          "name": "price",
          "type": "uint256"
        }
      ],
      "name": "publish",
      "outputs": [
        {
          "internalType": "uint256",
          "name": "",
          "type": "uint256"
        }
      ],
      "stateMutability": "payable",
      "type": "function",
      "payable": true
    },
    {
      "inputs": [
        {
          "internalType": "uint256",
          "name": "amount",
          "type": "uint256"
        }
      ],
      "name": "transferToTreasurer",
      "outputs": [],
      "stateMutability": "nonpayable",
      "type": "function"
    },
    {
      "inputs": [
        {
          "internalType": "string",
          "name": "_name",
          "type": "string"
        },
        {
          "internalType": "string",
          "name": "hash",
          "type": "string"
        },
        {
          "internalType": "uint256",
          "name": "price",
          "type": "uint256"
        },
        {
          "internalType": "address",
          "name": "creator",
          "type": "address"
        }
      ],
      "name": "publishOnBehalf",
      "outputs": [
        {
          "internalType": "uint256",
          "name": "",
          "type": "uint256"
        }
      ],
      "stateMutability": "nonpayable",
      "type": "function"
    },
    {
      "inputs": [
        {
          "internalType": "uint256",
          "name": "tokenId",
          "type": "uint256"
        },
        {
          "internalType": "string",
          "name": "hash",
          "type": "string"
        }
      ],
      "name": "extend",
      "outputs": [],
      "stateMutability": "payable",
      "type": "function",
      "payable": true
    },
    {
      "inputs": [
        {
          "internalType": "uint256",
          "name": "tokenId",
          "type": "uint256"
        }
      ],
      "name": "buy",
      "outputs": [],
      "stateMutability": "payable",
      "type": "function",
      "payable": true
    },
    {
      "inputs": [
        {
          "internalType": "address",
          "name": "to",
          "type": "address"
        },
        {
          "internalType": "uint256",
          "name": "tokenId",
          "type": "uint256"
        }
      ],
      "name": "safeTransfer",
      "outputs": [],
      "stateMutability": "nonpayable",
      "type": "function"
    },
    {
      "inputs": [
        {
          "internalType": "address",
          "name": "from",
          "type": "address"
        },
        {
          "internalType": "address",
          "name": "to",
          "type": "address"
        },
        {
          "internalType": "uint256",
          "name": "tokenId",
          "type": "uint256"
        }
      ],
      "name": "safeTransferFrom",
      "outputs": [],
      "stateMutability": "nonpayable",
      "type": "function"
    },
    {
      "inputs": [
        {
          "internalType": "address",
          "name": "from",
          "type": "address"
        },
        {
          "internalType": "address",
          "name": "to",
          "type": "address"
        },
        {
          "internalType": "uint256",
          "name": "tokenId",
          "type": "uint256"
        },
        {
          "internalType": "bytes",
          "name": "_data",
          "type": "bytes"
        }
      ],
      "name": "safeTransferFrom",
      "outputs": [],
      "stateMutability": "nonpayable",
      "type": "function"
    },
    {
      "inputs": [
        {
          "internalType": "address",
          "name": "from",
          "type": "address"
        },
        {
          "internalType": "address",
          "name": "to",
          "type": "address"
        },
        {
          "internalType": "uint256",
          "name": "tokenId",
          "type": "uint256"
        }
      ],
      "name": "transferFrom",
      "outputs": [],
      "stateMutability": "nonpayable",
      "type": "function"
    },
    {
      "inputs": [
        {
          "internalType": "address",
          "name": "owner",
          "type": "address"
        }
      ],
      "name": "balanceOf",
      "outputs": [
        {
          "internalType": "uint256",
          "name": "",
          "type": "uint256"
        }
      ],
      "stateMutability": "view",
      "type": "function",
      "constant": true
    },
    {
      "inputs": [
        {
          "internalType": "uint256",
          "name": "tokenId",
          "type": "uint256"
        }
      ],
      "name": "ownerOf",
      "outputs": [
        {
          "internalType": "address",
          "name": "",
          "type": "address"
        }
      ],
      "stateMutability": "view",
      "type": "function",
      "constant": true
    },
    {
      "inputs": [
        {
          "internalType": "string",
          "name": "hash",
          "type": "string"
        }
      ],
      "name": "ownerOfHash",
      "outputs": [
        {
          "internalType": "address",
          "name": "",
          "type": "address"
        }
      ],
      "stateMutability": "view",
      "type": "function",
      "constant": true
    },
    {
      "inputs": [
        {
          "internalType": "string",
          "name": "hash",
          "type": "string"
        }
      ],
      "name": "ideaOfHash",
      "outputs": [
        {
          "internalType": "uint256",
          "name": "",
          "type": "uint256"
        }
      ],
      "stateMutability": "view",
      "type": "function",
      "constant": true
    },
    {
      "inputs": [],
      "name": "showSender",
      "outputs": [
        {
          "internalType": "address",
          "name": "",
          "type": "address"
        }
      ],
      "stateMutability": "view",
      "type": "function",
      "constant": true
    },
    {
      "inputs": [],
      "name": "get_txn_fees_percent",
      "outputs": [
        {
          "internalType": "uint256",
          "name": "",
          "type": "uint256"
        }
      ],
      "stateMutability": "view",
      "type": "function",
      "constant": true
    },
    {
      "inputs": [],
      "name": "totalTokens",
      "outputs": [
        {
          "internalType": "uint256",
          "name": "",
          "type": "uint256"
        }
      ],
      "stateMutability": "view",
      "type": "function",
      "constant": true
    },
    {
      "inputs": [
        {
          "internalType": "uint256",
          "name": "id",
          "type": "uint256"
        }
      ],
      "name": "metadataOf",
      "outputs": [
        {
          "internalType": "string",
          "name": "_name",
          "type": "string"
        },
        {
          "internalType": "string",
          "name": "hash",
          "type": "string"
        },
        {
          "internalType": "uint256",
          "name": "block_time",
          "type": "uint256"
        },
        {
          "internalType": "uint256",
          "name": "price",
          "type": "uint256"
        },
        {
          "internalType": "address",
          "name": "owner",
          "type": "address"
        },
        {
          "internalType": "address",
          "name": "creator",
          "type": "address"
        }
      ],
      "stateMutability": "view",
      "type": "function",
      "constant": true
    },
    {
      "inputs": [
        {
          "internalType": "uint256",
          "name": "id",
          "type": "uint256"
        }
      ],
      "name": "metadataOfLatest",
      "outputs": [
        {
          "internalType": "string",
          "name": "_name",
          "type": "string"
        },
        {
          "internalType": "string",
          "name": "hash",
          "type": "string"
        },
        {
          "internalType": "uint256",
          "name": "block_time",
          "type": "uint256"
        },
        {
          "internalType": "uint256",
          "name": "price",
          "type": "uint256"
        },
        {
          "internalType": "address",
          "name": "owner",
          "type": "address"
        },
        {
          "internalType": "address",
          "name": "creator",
          "type": "address"
        }
      ],
      "stateMutability": "view",
      "type": "function",
      "constant": true
    },
    {
      "inputs": [
        {
          "internalType": "uint256",
          "name": "id",
          "type": "uint256"
        },
        {
          "internalType": "uint256",
          "name": "version",
          "type": "uint256"
        }
      ],
      "name": "metadataOfVersion",
      "outputs": [
        {
          "internalType": "string",
          "name": "_name",
          "type": "string"
        },
        {
          "internalType": "string",
          "name": "hash",
          "type": "string"
        },
        {
          "internalType": "uint256",
          "name": "block_time",
          "type": "uint256"
        },
        {
          "internalType": "uint256",
          "name": "price",
          "type": "uint256"
        },
        {
          "internalType": "address",
          "name": "owner",
          "type": "address"
        },
        {
          "internalType": "address",
          "name": "creator",
          "type": "address"
        }
      ],
      "stateMutability": "view",
      "type": "function",
      "constant": true
    },
    {
      "inputs": [
        {
          "internalType": "address",
          "name": "wallet",
          "type": "address"
        }
      ],
      "name": "userNameOf",
      "outputs": [
        {
          "internalType": "string",
          "name": "",
          "type": "string"
        }
      ],
      "stateMutability": "view",
      "type": "function",
      "constant": true
    },
    {
      "inputs": [
        {
          "internalType": "string",
          "name": "_user",
          "type": "string"
        }
      ],
      "name": "walletOf",
      "outputs": [
        {
          "internalType": "address",
          "name": "",
          "type": "address"
        }
      ],
      "stateMutability": "view",
      "type": "function",
      "constant": true
    },
    {
      "inputs": [
        {
          "internalType": "address",
          "name": "to",
          "type": "address"
        },
        {
          "internalType": "uint256",
          "name": "tokenId",
          "type": "uint256"
        }
      ],
      "name": "approve",
      "outputs": [],
      "stateMutability": "nonpayable",
      "type": "function"
    },
    {
      "inputs": [
        {
          "internalType": "uint256",
          "name": "tokenId",
          "type": "uint256"
        }
      ],
      "name": "getApproved",
      "outputs": [
        {
          "internalType": "address",
          "name": "",
          "type": "address"
        }
      ],
      "stateMutability": "view",
      "type": "function",
      "constant": true
    },
    {
      "inputs": [
        {
          "internalType": "address",
          "name": "operator",
          "type": "address"
        },
        {
          "internalType": "bool",
          "name": "approved",
          "type": "bool"
        }
      ],
      "name": "setApprovalForAll",
      "outputs": [],
      "stateMutability": "nonpayable",
      "type": "function"
    },
    {
      "inputs": [
        {
          "internalType": "address",
          "name": "owner",
          "type": "address"
        },
        {
          "internalType": "address",
          "name": "operator",
          "type": "address"
        }
      ],
      "name": "isApprovedForAll",
      "outputs": [
        {
          "internalType": "bool",
          "name": "",
          "type": "bool"
        }
      ],
      "stateMutability": "view",
      "type": "function",
      "constant": true
    },
    {
      "inputs": [
        {
          "internalType": "bytes4",
          "name": "interfaceId",
          "type": "bytes4"
        }
      ],
      "name": "supportsInterface",
      "outputs": [
        {
          "internalType": "bool",
          "name": "",
          "type": "bool"
        }
      ],
      "stateMutability": "view",
      "type": "function",
      "constant": true
    }
  ],
  "bytecode": "0x6080604052600a60065560006008553480156200001b57600080fd5b506040516200646d3803806200646d833981810160405281019062000041919062000303565b86600160006101000a81548173ffffffffffffffffffffffffffffffffffffffff021916908373ffffffffffffffffffffffffffffffffffffffff16021790555085600260006101000a81548173ffffffffffffffffffffffffffffffffffffffff021916908373ffffffffffffffffffffffffffffffffffffffff16021790555084600360006101000a81548173ffffffffffffffffffffffffffffffffffffffff021916908373ffffffffffffffffffffffffffffffffffffffff16021790555083600460006101000a81548173ffffffffffffffffffffffffffffffffffffffff021916908373ffffffffffffffffffffffffffffffffffffffff16021790555082600560006101000a81548173ffffffffffffffffffffffffffffffffffffffff021916908373ffffffffffffffffffffffffffffffffffffffff160217905550816007819055508060009080519060200190620001a5929190620001b3565b50505050505050506200056c565b828054620001c190620004a4565b90600052602060002090601f016020900481019282620001e5576000855562000231565b82601f106200020057805160ff191683800117855562000231565b8280016001018555821562000231579182015b828111156200023057825182559160200191906001019062000213565b5b50905062000240919062000244565b5090565b5b808211156200025f57600081600090555060010162000245565b5090565b60006200027a6200027484620003fd565b620003c9565b9050828152602081018484840111156200029357600080fd5b620002a08482856200046e565b509392505050565b600081519050620002b98162000538565b92915050565b600082601f830112620002d157600080fd5b8151620002e384826020860162000263565b91505092915050565b600081519050620002fd8162000552565b92915050565b600080600080600080600060e0888a0312156200031f57600080fd5b60006200032f8a828b01620002a8565b9750506020620003428a828b01620002a8565b9650506040620003558a828b01620002a8565b9550506060620003688a828b01620002a8565b94505060806200037b8a828b01620002a8565b93505060a06200038e8a828b01620002ec565b92505060c088015167ffffffffffffffff811115620003ac57600080fd5b620003ba8a828b01620002bf565b91505092959891949750929550565b6000604051905081810181811067ffffffffffffffff82111715620003f357620003f262000509565b5b8060405250919050565b600067ffffffffffffffff8211156200041b576200041a62000509565b5b601f19601f8301169050602081019050919050565b60006200043d8262000444565b9050919050565b600073ffffffffffffffffffffffffffffffffffffffff82169050919050565b6000819050919050565b60005b838110156200048e57808201518184015260208101905062000471565b838111156200049e576000848401525b50505050565b60006002820490506001821680620004bd57607f821691505b60208210811415620004d457620004d3620004da565b5b50919050565b7f4e487b7100000000000000000000000000000000000000000000000000000000600052602260045260246000fd5b7f4e487b7100000000000000000000000000000000000000000000000000000000600052604160045260246000fd5b620005438162000430565b81146200054f57600080fd5b50565b6200055d8162000464565b81146200056957600080fd5b50565b615ef1806200057c6000396000f3fe6080604052600436106102675760003560e01c80638b5d3a0511610144578063afa57040116100b6578063c9c004a91161007a578063c9c004a9146109a3578063d96a094a146109cc578063db5ec706146109e8578063e9333fab14610a04578063e985e9c514610a2d578063f586cbed14610a6a57610267565b8063afa57040146108c0578063b2107345146108e9578063b88d4fde14610912578063b9ca54b61461093b578063c87b56dd1461096657610267565b8063a1fe1ced11610108578063a1fe1ced146107b2578063a22cb465146107dd578063a4d64ff414610806578063a5b8ae4a14610831578063a7cef4e51461086e578063abbcb0821461089757610267565b80638b5d3a05146106c65780638b63d6a3146106f15780639453f89d1461072157806395d89b411461075e5780639ad61d341461078957610267565b806329728e3e116101dd57806342842e0e116101a157806342842e0e146105a2578063442890d5146105cb5780636352211e146105f65780636e9960c31461063357806370a082311461065e5780637e1c0c091461069b57610267565b806329728e3e146104945780632ae3e29f146104bd57806332a52555146104fa57806340c945cd14610537578063423f6cef1461057957610267565b80630fb0d5b01161022f5780630fb0d5b01461037c5780631637854b146103a5578063199ab75d146103c15780631e9d5604146103ec57806323b872dd1461042e57806326add5401461045757610267565b806301ffc9a71461026c57806306fdde03146102a9578063081812fc146102d4578063095ea7b3146103115780630ef7cc8e1461033a575b600080fd5b34801561027857600080fd5b50610293600480360381019061028e91906145c4565b610a93565b6040516102a0919061554b565b60405180910390f35b3480156102b557600080fd5b506102be610b0d565b6040516102cb9190615566565b60405180910390f35b3480156102e057600080fd5b506102fb60048036038101906102f69190614769565b610b4a565b60405161030891906154e4565b60405180910390f35b34801561031d57600080fd5b5061033860048036038101906103339190614588565b610bcf565b005b34801561034657600080fd5b50610361600480360381019061035c9190614769565b610ce7565b60405161037396959493929190615588565b60405180910390f35b34801561038857600080fd5b506103a3600480360381019061039e91906143c9565b610d10565b005b6103bf60048036038101906103ba9190614792565b610de4565b005b3480156103cd57600080fd5b506103d6611095565b6040516103e391906154e4565b60405180910390f35b3480156103f857600080fd5b50610413600480360381019061040e91906147e6565b6110bf565b60405161042596959493929190615588565b60405180910390f35b34801561043a57600080fd5b506104556004803603810190610450919061442e565b6113ac565b005b34801561046357600080fd5b5061047e600480360381019061047991906143c9565b61140c565b60405161048b9190615566565b60405180910390f35b3480156104a057600080fd5b506104bb60048036038101906104b69190614769565b61154d565b005b3480156104c957600080fd5b506104e460048036038101906104df91906146d6565b6115e7565b6040516104f19190615a17565b60405180910390f35b34801561050657600080fd5b50610521600480360381019061051c9190614616565b611993565b60405161052e9190615a17565b60405180910390f35b34801561054357600080fd5b5061055e60048036038101906105599190614769565b6119bb565b60405161057096959493929190615588565b60405180910390f35b34801561058557600080fd5b506105a0600480360381019061059b9190614588565b611c60565b005b3480156105ae57600080fd5b506105c960048036038101906105c4919061442e565b611c76565b005b3480156105d757600080fd5b506105e0611c96565b6040516105ed91906154e4565b60405180910390f35b34801561060257600080fd5b5061061d60048036038101906106189190614769565b611cc0565b60405161062a91906154e4565b60405180910390f35b34801561063f57600080fd5b50610648611d75565b60405161065591906154e4565b60405180910390f35b34801561066a57600080fd5b50610685600480360381019061068091906143c9565b611d9f565b6040516106929190615a17565b60405180910390f35b3480156106a757600080fd5b506106b0611e57565b6040516106bd9190615a17565b60405180910390f35b3480156106d257600080fd5b506106db611e61565b6040516106e89190615a17565b60405180910390f35b61070b60048036038101906107069190614657565b611e67565b6040516107189190615a17565b60405180910390f35b34801561072d57600080fd5b5061074860048036038101906107439190614616565b6121db565b60405161075591906154e4565b60405180910390f35b34801561076a57600080fd5b50610773612223565b6040516107809190615566565b60405180910390f35b34801561079557600080fd5b506107b060048036038101906107ab9190614769565b612260565b005b3480156107be57600080fd5b506107c761235c565b6040516107d49190615a17565b60405180910390f35b3480156107e957600080fd5b5061080460048036038101906107ff91906144f8565b6123f6565b005b34801561081257600080fd5b5061081b612577565b60405161082891906154e4565b60405180910390f35b34801561083d57600080fd5b5061085860048036038101906108539190614616565b61257f565b60405161086591906154e4565b60405180910390f35b34801561087a57600080fd5b50610895600480360381019061089091906143c9565b6125af565b005b3480156108a357600080fd5b506108be60048036038101906108b991906147e6565b612683565b005b3480156108cc57600080fd5b506108e760048036038101906108e29190614616565b6127d1565b005b3480156108f557600080fd5b50610910600480360381019061090b91906143c9565b61287b565b005b34801561091e57600080fd5b506109396004803603810190610934919061447d565b61294f565b005b34801561094757600080fd5b506109506129b1565b60405161095d91906154e4565b60405180910390f35b34801561097257600080fd5b5061098d60048036038101906109889190614769565b6129db565b60405161099a9190615566565b60405180910390f35b3480156109af57600080fd5b506109ca60048036038101906109c591906143c9565b612a82565b005b6109e660048036038101906109e19190614769565b612b56565b005b610a0260048036038101906109fd9190614534565b613018565b005b348015610a1057600080fd5b50610a2b6004803603810190610a2691906143c9565b6133d2565b005b348015610a3957600080fd5b50610a546004803603810190610a4f91906143f2565b6134a6565b604051610a61919061554b565b60405180910390f35b348015610a7657600080fd5b50610a916004803603810190610a8c9190614769565b61353a565b005b60007f80ac58cd000000000000000000000000000000000000000000000000000000007bffffffffffffffffffffffffffffffffffffffffffffffffffffffff1916827bffffffffffffffffffffffffffffffffffffffffffffffffffffffff19161480610b065750610b05826135d4565b5b9050919050565b60606040518060400160405280600681526020017f5343524f4c4c0000000000000000000000000000000000000000000000000000815250905090565b6000610b558261363e565b610b94576040517f08c379a0000000000000000000000000000000000000000000000000000000008152600401610b8b906156d7565b60405180910390fd5b600e600083815260200190815260200160002060009054906101000a900473ffffffffffffffffffffffffffffffffffffffff169050919050565b6000610bda82611cc0565b90508073ffffffffffffffffffffffffffffffffffffffff168373ffffffffffffffffffffffffffffffffffffffff161415610c4b576040517f08c379a0000000000000000000000000000000000000000000000000000000008152600401610c4290615897565b60405180910390fd5b8073ffffffffffffffffffffffffffffffffffffffff16610c6a6136ad565b73ffffffffffffffffffffffffffffffffffffffff161480610c995750610c9881610c936136ad565b6134a6565b5b610cd8576040517f08c379a0000000000000000000000000000000000000000000000000000000008152600401610ccf906158b7565b60405180910390fd5b610ce283836136b5565b505050565b606080600080600080610cfb8760006110bf565b95509550955095509550955091939550919395565b600160009054906101000a900473ffffffffffffffffffffffffffffffffffffffff1673ffffffffffffffffffffffffffffffffffffffff163373ffffffffffffffffffffffffffffffffffffffff1614610da0576040517f08c379a0000000000000000000000000000000000000000000000000000000008152600401610d9790615817565b60405180910390fd5b80600260006101000a81548173ffffffffffffffffffffffffffffffffffffffff021916908373ffffffffffffffffffffffffffffffffffffffff16021790555050565b610dec6136ad565b82610df7828261376e565b610e36576040517f08c379a0000000000000000000000000000000000000000000000000000000008152600401610e2d906156f7565b60405180910390fd5b610e3f8361384c565b15610e7f576040517f08c379a0000000000000000000000000000000000000000000000000000000008152600401610e7690615657565b60405180910390fd5b6000600d84604051610e9191906154a9565b90815260200160405180910390205414610ee0576040517f08c379a0000000000000000000000000000000000000000000000000000000008152600401610ed790615997565b60405180910390fd5b600754341015610f25576040517f08c379a0000000000000000000000000000000000000000000000000000000008152600401610f1c90615797565b60405180910390fd5b610fcc600b60008681526020019081526020016000206000018054610f4990615ce6565b80601f0160208091040260200160405190810160405280929190818152602001828054610f7590615ce6565b8015610fc25780601f10610f9757610100808354040283529160200191610fc2565b820191906000526020600020905b815481529060010190602001808311610fa557829003601f168201915b505050505061384c565b1561100c576040517f08c379a0000000000000000000000000000000000000000000000000000000008152600401611003906159b7565b60405180910390fd5b60006040518060400160405280858152602001428152509050600b600086815260200190815260200160002060040181908060018154018082558091505060019003906000526020600020906002020160009091909190915060008201518160000190805190602001906110819291906141d3565b506020820151816001015550505050505050565b6000600260009054906101000a900473ffffffffffffffffffffffffffffffffffffffff16905090565b6060806000806000806000600b60008a81526020019081526020016000206040518060a00160405290816000820180546110f890615ce6565b80601f016020809104026020016040519081016040528092919081815260200182805461112490615ce6565b80156111715780601f1061114657610100808354040283529160200191611171565b820191906000526020600020905b81548152906001019060200180831161115457829003601f168201915b50505050508152602001600182015481526020016002820160009054906101000a900473ffffffffffffffffffffffffffffffffffffffff1673ffffffffffffffffffffffffffffffffffffffff1673ffffffffffffffffffffffffffffffffffffffff1681526020016003820160009054906101000a900473ffffffffffffffffffffffffffffffffffffffff1673ffffffffffffffffffffffffffffffffffffffff1673ffffffffffffffffffffffffffffffffffffffff16815260200160048201805480602002602001604051908101604052809291908181526020016000905b82821015611323578382906000526020600020906002020160405180604001604052908160008201805461128890615ce6565b80601f01602080910402602001604051908101604052809291908181526020018280546112b490615ce6565b80156113015780601f106112d657610100808354040283529160200191611301565b820191906000526020600020905b8154815290600101906020018083116112e457829003601f168201915b5050505050815260200160018201548152505081526020019060010190611255565b5050505081525050905060008160800151898151811061136c577f4e487b7100000000000000000000000000000000000000000000000000000000600052603260045260246000fd5b6020026020010151905081600001518160000151826020015184602001518560400151866060015197509750975097509750975050509295509295509295565b6113bd6113b76136ad565b8261376e565b6113fc576040517f08c379a00000000000000000000000000000000000000000000000000000000081526004016113f390615977565b60405180910390fd5b611407838383613859565b505050565b6060600073ffffffffffffffffffffffffffffffffffffffff168273ffffffffffffffffffffffffffffffffffffffff16141561147e576040517f08c379a0000000000000000000000000000000000000000000000000000000008152600401611475906158d7565b60405180910390fd5b600960008373ffffffffffffffffffffffffffffffffffffffff1673ffffffffffffffffffffffffffffffffffffffff16815260200190815260200160002080546114c890615ce6565b80601f01602080910402602001604051908101604052809291908181526020018280546114f490615ce6565b80156115415780601f1061151657610100808354040283529160200191611541565b820191906000526020600020905b81548152906001019060200180831161152457829003601f168201915b50505050509050919050565b600360009054906101000a900473ffffffffffffffffffffffffffffffffffffffff1673ffffffffffffffffffffffffffffffffffffffff163373ffffffffffffffffffffffffffffffffffffffff16146115dd576040517f08c379a00000000000000000000000000000000000000000000000000000000081526004016115d4906159f7565b60405180910390fd5b8060068190555050565b6000600460009054906101000a900473ffffffffffffffffffffffffffffffffffffffff1673ffffffffffffffffffffffffffffffffffffffff163373ffffffffffffffffffffffffffffffffffffffff1614611679576040517f08c379a000000000000000000000000000000000000000000000000000000000815260040161167090615857565b60405180910390fd5b8161174a600960008373ffffffffffffffffffffffffffffffffffffffff1673ffffffffffffffffffffffffffffffffffffffff16815260200190815260200160002080546116c790615ce6565b80601f01602080910402602001604051908101604052809291908181526020018280546116f390615ce6565b80156117405780601f1061171557610100808354040283529160200191611740565b820191906000526020600020905b81548152906001019060200180831161172357829003601f168201915b505050505061384c565b1561178a576040517f08c379a0000000000000000000000000000000000000000000000000000000008152600401611781906157b7565b60405180910390fd5b6117938661384c565b156117d3576040517f08c379a00000000000000000000000000000000000000000000000000000000081526004016117ca906157d7565b60405180910390fd5b6117dc8561384c565b1561181c576040517f08c379a000000000000000000000000000000000000000000000000000000000815260040161181390615657565b60405180910390fd5b6000600d8660405161182e91906154a9565b9081526020016040518091039020541461187d576040517f08c379a000000000000000000000000000000000000000000000000000000000815260040161187490615997565b60405180910390fd5b6001600860008282546118909190615b1b565b92505081905550611985836008546040518060a001604052808a81526020018881526020018773ffffffffffffffffffffffffffffffffffffffff1681526020018773ffffffffffffffffffffffffffffffffffffffff168152602001600067ffffffffffffffff81111561192e577f4e487b7100000000000000000000000000000000000000000000000000000000600052604160045260246000fd5b60405190808252806020026020018201604052801561196757816020015b611954614259565b81526020019060019003908161194c5790505b5081525060405180604001604052808a815260200142815250613ae2565b600854915050949350505050565b6000600d826040516119a591906154a9565b9081526020016040518091039020549050919050565b6060806000806000806000600b60008981526020019081526020016000206040518060a00160405290816000820180546119f490615ce6565b80601f0160208091040260200160405190810160405280929190818152602001828054611a2090615ce6565b8015611a6d5780601f10611a4257610100808354040283529160200191611a6d565b820191906000526020600020905b815481529060010190602001808311611a5057829003601f168201915b50505050508152602001600182015481526020016002820160009054906101000a900473ffffffffffffffffffffffffffffffffffffffff1673ffffffffffffffffffffffffffffffffffffffff1673ffffffffffffffffffffffffffffffffffffffff1681526020016003820160009054906101000a900473ffffffffffffffffffffffffffffffffffffffff1673ffffffffffffffffffffffffffffffffffffffff1673ffffffffffffffffffffffffffffffffffffffff16815260200160048201805480602002602001604051908101604052809291908181526020016000905b82821015611c1f5783829060005260206000209060020201604051806040016040529081600082018054611b8490615ce6565b80601f0160208091040260200160405190810160405280929190818152602001828054611bb090615ce6565b8015611bfd5780601f10611bd257610100808354040283529160200191611bfd565b820191906000526020600020905b815481529060010190602001808311611be057829003601f168201915b5050505050815260200160018201548152505081526020019060010190611b51565b5050505081525050905060008160800151519050611c4989600183611c449190615bfc565b6110bf565b975097509750975097509750505091939550919395565b611c72611c6b6136ad565b8383611c76565b5050565b611c918383836040518060200160405280600081525061294f565b505050565b6000600160009054906101000a900473ffffffffffffffffffffffffffffffffffffffff16905090565b600080600b600084815260200190815260200160002060020160009054906101000a900473ffffffffffffffffffffffffffffffffffffffff169050600073ffffffffffffffffffffffffffffffffffffffff168173ffffffffffffffffffffffffffffffffffffffff161415611d6c576040517f08c379a0000000000000000000000000000000000000000000000000000000008152600401611d6390615697565b60405180910390fd5b80915050919050565b6000600360009054906101000a900473ffffffffffffffffffffffffffffffffffffffff16905090565b60008073ffffffffffffffffffffffffffffffffffffffff168273ffffffffffffffffffffffffffffffffffffffff161415611e10576040517f08c379a0000000000000000000000000000000000000000000000000000000008152600401611e07906156b7565b60405180910390fd5b600c60008373ffffffffffffffffffffffffffffffffffffffff1673ffffffffffffffffffffffffffffffffffffffff168152602001908152602001600020549050919050565b6000600854905090565b60075481565b6000611e716136ad565b611f41600960008373ffffffffffffffffffffffffffffffffffffffff1673ffffffffffffffffffffffffffffffffffffffff1681526020019081526020016000208054611ebe90615ce6565b80601f0160208091040260200160405190810160405280929190818152602001828054611eea90615ce6565b8015611f375780601f10611f0c57610100808354040283529160200191611f37565b820191906000526020600020905b815481529060010190602001808311611f1a57829003601f168201915b505050505061384c565b15611f81576040517f08c379a0000000000000000000000000000000000000000000000000000000008152600401611f78906157b7565b60405180910390fd5b611f8a8561384c565b15611fca576040517f08c379a0000000000000000000000000000000000000000000000000000000008152600401611fc1906157d7565b60405180910390fd5b611fd38461384c565b15612013576040517f08c379a000000000000000000000000000000000000000000000000000000000815260040161200a90615657565b60405180910390fd5b6000600d8560405161202591906154a9565b90815260200160405180910390205414612074576040517f08c379a000000000000000000000000000000000000000000000000000000000815260040161206b90615997565b60405180910390fd5b6007543410156120b9576040517f08c379a00000000000000000000000000000000000000000000000000000000081526004016120b090615797565b60405180910390fd5b6001600860008282546120cc9190615b1b565b9250508190555060006120dd6136ad565b90506121cd816008546040518060a001604052808a81526020018881526020018573ffffffffffffffffffffffffffffffffffffffff1681526020018573ffffffffffffffffffffffffffffffffffffffff168152602001600067ffffffffffffffff811115612176577f4e487b7100000000000000000000000000000000000000000000000000000000600052604160045260246000fd5b6040519080825280602002602001820160405280156121af57816020015b61219c614259565b8152602001906001900390816121945790505b5081525060405180604001604052808a815260200142815250613ae2565b600854925050509392505050565b6000600a826040516121ed91906154a9565b908152602001604051809103902060009054906101000a900473ffffffffffffffffffffffffffffffffffffffff169050919050565b60606040518060400160405280600481526020017f5343524c00000000000000000000000000000000000000000000000000000000815250905090565b600360009054906101000a900473ffffffffffffffffffffffffffffffffffffffff1673ffffffffffffffffffffffffffffffffffffffff163373ffffffffffffffffffffffffffffffffffffffff16146122f0576040517f08c379a00000000000000000000000000000000000000000000000000000000081526004016122e7906159f7565b60405180910390fd5b600260009054906101000a900473ffffffffffffffffffffffffffffffffffffffff1673ffffffffffffffffffffffffffffffffffffffff166108fc829081150290604051600060405180830381858888f19350505050158015612358573d6000803e3d6000fd5b5050565b6000600360009054906101000a900473ffffffffffffffffffffffffffffffffffffffff1673ffffffffffffffffffffffffffffffffffffffff163373ffffffffffffffffffffffffffffffffffffffff16146123ee576040517f08c379a00000000000000000000000000000000000000000000000000000000081526004016123e5906159f7565b60405180910390fd5b600654905090565b6123fe6136ad565b73ffffffffffffffffffffffffffffffffffffffff168273ffffffffffffffffffffffffffffffffffffffff16141561246c576040517f08c379a000000000000000000000000000000000000000000000000000000000815260040161246390615677565b60405180910390fd5b80600f60006124796136ad565b73ffffffffffffffffffffffffffffffffffffffff1673ffffffffffffffffffffffffffffffffffffffff16815260200190815260200160002060008473ffffffffffffffffffffffffffffffffffffffff1673ffffffffffffffffffffffffffffffffffffffff16815260200190815260200160002060006101000a81548160ff0219169083151502179055508173ffffffffffffffffffffffffffffffffffffffff166125266136ad565b73ffffffffffffffffffffffffffffffffffffffff167f17307eab39ab6107e8899845ad3d59bd9653f200f220920489ca2b5937696c318360405161256b919061554b565b60405180910390a35050565b600033905090565b60006125a8600d8360405161259491906154a9565b908152602001604051809103902054611cc0565b9050919050565b600160009054906101000a900473ffffffffffffffffffffffffffffffffffffffff1673ffffffffffffffffffffffffffffffffffffffff163373ffffffffffffffffffffffffffffffffffffffff161461263f576040517f08c379a000000000000000000000000000000000000000000000000000000000815260040161263690615817565b60405180910390fd5b80600460006101000a81548173ffffffffffffffffffffffffffffffffffffffff021916908373ffffffffffffffffffffffffffffffffffffffff16021790555050565b61268b6136ad565b82612696828261376e565b6126d5576040517f08c379a00000000000000000000000000000000000000000000000000000000081526004016126cc906156f7565b60405180910390fd5b6000600b600086815260200190815260200160002090506127818160000180546126fe90615ce6565b80601f016020809104026020016040519081016040528092919081815260200182805461272a90615ce6565b80156127775780601f1061274c57610100808354040283529160200191612777565b820191906000526020600020905b81548152906001019060200180831161275a57829003601f168201915b505050505061384c565b156127c1576040517f08c379a00000000000000000000000000000000000000000000000000000000081526004016127b8906159b7565b60405180910390fd5b8381600101819055505050505050565b600360009054906101000a900473ffffffffffffffffffffffffffffffffffffffff1673ffffffffffffffffffffffffffffffffffffffff163373ffffffffffffffffffffffffffffffffffffffff1614612861576040517f08c379a0000000000000000000000000000000000000000000000000000000008152600401612858906159f7565b60405180910390fd5b80600090805190602001906128779291906141d3565b5050565b600160009054906101000a900473ffffffffffffffffffffffffffffffffffffffff1673ffffffffffffffffffffffffffffffffffffffff163373ffffffffffffffffffffffffffffffffffffffff161461290b576040517f08c379a000000000000000000000000000000000000000000000000000000000815260040161290290615817565b60405180910390fd5b80600160006101000a81548173ffffffffffffffffffffffffffffffffffffffff021916908373ffffffffffffffffffffffffffffffffffffffff16021790555050565b61296061295a6136ad565b8361376e565b61299f576040517f08c379a000000000000000000000000000000000000000000000000000000000815260040161299690615977565b60405180910390fd5b6129ab84848484613b4f565b50505050565b6000600560009054906101000a900473ffffffffffffffffffffffffffffffffffffffff16905090565b60606129e68261363e565b612a25576040517f08c379a0000000000000000000000000000000000000000000000000000000008152600401612a1c90615837565b60405180910390fd5b6000808054612a3390615ce6565b905011612a4f5760405180602001604052806000815250612a7b565b6000612a5a83613bab565b604051602001612a6b9291906154c0565b6040516020818303038152906040525b9050919050565b600160009054906101000a900473ffffffffffffffffffffffffffffffffffffffff1673ffffffffffffffffffffffffffffffffffffffff163373ffffffffffffffffffffffffffffffffffffffff1614612b12576040517f08c379a0000000000000000000000000000000000000000000000000000000008152600401612b0990615817565b60405180910390fd5b80600560006101000a81548173ffffffffffffffffffffffffffffffffffffffff021916908373ffffffffffffffffffffffffffffffffffffffff16021790555050565b6000600b60008381526020019081526020016000206040518060a0016040529081600082018054612b8690615ce6565b80601f0160208091040260200160405190810160405280929190818152602001828054612bb290615ce6565b8015612bff5780601f10612bd457610100808354040283529160200191612bff565b820191906000526020600020905b815481529060010190602001808311612be257829003601f168201915b50505050508152602001600182015481526020016002820160009054906101000a900473ffffffffffffffffffffffffffffffffffffffff1673ffffffffffffffffffffffffffffffffffffffff1673ffffffffffffffffffffffffffffffffffffffff1681526020016003820160009054906101000a900473ffffffffffffffffffffffffffffffffffffffff1673ffffffffffffffffffffffffffffffffffffffff1673ffffffffffffffffffffffffffffffffffffffff16815260200160048201805480602002602001604051908101604052809291908181526020016000905b82821015612db15783829060005260206000209060020201604051806040016040529081600082018054612d1690615ce6565b80601f0160208091040260200160405190810160405280929190818152602001828054612d4290615ce6565b8015612d8f5780601f10612d6457610100808354040283529160200191612d8f565b820191906000526020600020905b815481529060010190602001808311612d7257829003601f168201915b5050505050815260200160018201548152505081526020019060010190612ce3565b50505050815250509050612dc8816000015161384c565b15612e08576040517f08c379a0000000000000000000000000000000000000000000000000000000008152600401612dff906159b7565b60405180910390fd5b3373ffffffffffffffffffffffffffffffffffffffff16816040015173ffffffffffffffffffffffffffffffffffffffff161415612e7b576040517f08c379a0000000000000000000000000000000000000000000000000000000008152600401612e72906159d7565b60405180910390fd5b6000816020015111612ec2576040517f08c379a0000000000000000000000000000000000000000000000000000000008152600401612eb990615717565b60405180910390fd5b8060200151341015612f09576040517f08c379a0000000000000000000000000000000000000000000000000000000008152600401612f0090615957565b60405180910390fd5b600081604001519050612f3481612f1e6136ad565b8560405180602001604052806000815250613b4f565b6000606434600654612f469190615ba2565b612f509190615b71565b90508173ffffffffffffffffffffffffffffffffffffffff166108fc828560200151612f7c9190615bfc565b9081150290604051600060405180830381858888f19350505050158015612fa7573d6000803e3d6000fd5b50826020015134111561301257612fbc6136ad565b73ffffffffffffffffffffffffffffffffffffffff166108fc846020015134612fe59190615bfc565b9081150290604051600060405180830381858888f19350505050158015613010573d6000803e3d6000fd5b505b50505050565b600460009054906101000a900473ffffffffffffffffffffffffffffffffffffffff1673ffffffffffffffffffffffffffffffffffffffff163373ffffffffffffffffffffffffffffffffffffffff16146130a8576040517f08c379a000000000000000000000000000000000000000000000000000000000815260040161309f90615857565b60405180910390fd5b6130b18161384c565b156130f1576040517f08c379a00000000000000000000000000000000000000000000000000000000081526004016130e8906158f7565b60405180910390fd5b600073ffffffffffffffffffffffffffffffffffffffff168273ffffffffffffffffffffffffffffffffffffffff161415613161576040517f08c379a000000000000000000000000000000000000000000000000000000000815260040161315890615917565b60405180910390fd5b613231600960008473ffffffffffffffffffffffffffffffffffffffff1673ffffffffffffffffffffffffffffffffffffffff16815260200190815260200160002080546131ae90615ce6565b80601f01602080910402602001604051908101604052809291908181526020018280546131da90615ce6565b80156132275780601f106131fc57610100808354040283529160200191613227565b820191906000526020600020905b81548152906001019060200180831161320a57829003601f168201915b505050505061384c565b613270576040517f08c379a000000000000000000000000000000000000000000000000000000000815260040161326790615737565b60405180910390fd5b600073ffffffffffffffffffffffffffffffffffffffff16600a8260405161329891906154a9565b908152602001604051809103902060009054906101000a900473ffffffffffffffffffffffffffffffffffffffff1673ffffffffffffffffffffffffffffffffffffffff161461331d576040517f08c379a0000000000000000000000000000000000000000000000000000000008152600401613314906157f7565b60405180910390fd5b80600960008473ffffffffffffffffffffffffffffffffffffffff1673ffffffffffffffffffffffffffffffffffffffff16815260200190815260200160002090805190602001906133709291906141d3565b5081600a8260405161338291906154a9565b908152602001604051809103902060006101000a81548173ffffffffffffffffffffffffffffffffffffffff021916908373ffffffffffffffffffffffffffffffffffffffff1602179055505050565b600160009054906101000a900473ffffffffffffffffffffffffffffffffffffffff1673ffffffffffffffffffffffffffffffffffffffff163373ffffffffffffffffffffffffffffffffffffffff1614613462576040517f08c379a000000000000000000000000000000000000000000000000000000000815260040161345990615817565b60405180910390fd5b80600360006101000a81548173ffffffffffffffffffffffffffffffffffffffff021916908373ffffffffffffffffffffffffffffffffffffffff16021790555050565b6000600f60008473ffffffffffffffffffffffffffffffffffffffff1673ffffffffffffffffffffffffffffffffffffffff16815260200190815260200160002060008373ffffffffffffffffffffffffffffffffffffffff1673ffffffffffffffffffffffffffffffffffffffff16815260200190815260200160002060009054906101000a900460ff16905092915050565b600360009054906101000a900473ffffffffffffffffffffffffffffffffffffffff1673ffffffffffffffffffffffffffffffffffffffff163373ffffffffffffffffffffffffffffffffffffffff16146135ca576040517f08c379a00000000000000000000000000000000000000000000000000000000081526004016135c1906159f7565b60405180910390fd5b8060078190555050565b60007f01ffc9a7000000000000000000000000000000000000000000000000000000007bffffffffffffffffffffffffffffffffffffffffffffffffffffffff1916827bffffffffffffffffffffffffffffffffffffffffffffffffffffffff1916149050919050565b60008073ffffffffffffffffffffffffffffffffffffffff16600b600084815260200190815260200160002060020160009054906101000a900473ffffffffffffffffffffffffffffffffffffffff1673ffffffffffffffffffffffffffffffffffffffff1614159050919050565b600033905090565b81600e600083815260200190815260200160002060006101000a81548173ffffffffffffffffffffffffffffffffffffffff021916908373ffffffffffffffffffffffffffffffffffffffff160217905550808273ffffffffffffffffffffffffffffffffffffffff1661372883611cc0565b73ffffffffffffffffffffffffffffffffffffffff167f8c5be1e5ebec7d5bd14f71427d1e84f3dd0314c0f7b2291e5b200ac8c7c3b92560405160405180910390a45050565b60006137798261363e565b6137b8576040517f08c379a00000000000000000000000000000000000000000000000000000000081526004016137af90615937565b60405180910390fd5b60006137c383611cc0565b90508073ffffffffffffffffffffffffffffffffffffffff168473ffffffffffffffffffffffffffffffffffffffff16148061383257508373ffffffffffffffffffffffffffffffffffffffff1661381a84610b4a565b73ffffffffffffffffffffffffffffffffffffffff16145b80613843575061384281856134a6565b5b91505092915050565b6000808251149050919050565b6000600b600083815260200190815260200160002090508373ffffffffffffffffffffffffffffffffffffffff168160020160009054906101000a900473ffffffffffffffffffffffffffffffffffffffff1673ffffffffffffffffffffffffffffffffffffffff1614613902576040517f08c379a00000000000000000000000000000000000000000000000000000000081526004016138f990615777565b60405180910390fd5b600073ffffffffffffffffffffffffffffffffffffffff168373ffffffffffffffffffffffffffffffffffffffff161415613972576040517f08c379a000000000000000000000000000000000000000000000000000000000815260040161396990615617565b60405180910390fd5b61397d848484613d58565b6139886000836136b5565b828160020160006101000a81548173ffffffffffffffffffffffffffffffffffffffff021916908373ffffffffffffffffffffffffffffffffffffffff16021790555080600101600090556001600c60008573ffffffffffffffffffffffffffffffffffffffff1673ffffffffffffffffffffffffffffffffffffffff1681526020019081526020016000206000828254613a239190615b1b565b925050819055506001600c60008673ffffffffffffffffffffffffffffffffffffffff1673ffffffffffffffffffffffffffffffffffffffff1681526020019081526020016000206000828254613a7a9190615bfc565b92505081905550818373ffffffffffffffffffffffffffffffffffffffff168573ffffffffffffffffffffffffffffffffffffffff167fddf252ad1be2c89b69c2b068fc378daa952ba7f163c4a11628f55a4df523b3ef60405160405180910390a450505050565b613aee84848484613d5d565b613b0a6000858560405180602001604052806000815250614029565b613b49576040517f08c379a0000000000000000000000000000000000000000000000000000000008152600401613b4090615877565b60405180910390fd5b50505050565b613b5a848484613859565b613b6684848484614029565b613ba5576040517f08c379a0000000000000000000000000000000000000000000000000000000008152600401613b9c90615877565b60405180910390fd5b50505050565b60606000821415613bf3576040518060400160405280600181526020017f30000000000000000000000000000000000000000000000000000000000000008152509050613d53565b600082905060005b60008214613c25578080613c0e90615d18565b915050600a82613c1e9190615b71565b9150613bfb565b60008167ffffffffffffffff811115613c67577f4e487b7100000000000000000000000000000000000000000000000000000000600052604160045260246000fd5b6040519080825280601f01601f191660200182016040528015613c995781602001600182028036833780820191505090505b5090505b60008514613d4c57600182613cb29190615bfc565b9150600a85613cc19190615d61565b6030613ccd9190615b1b565b60f81b818381518110613d09577f4e487b7100000000000000000000000000000000000000000000000000000000600052603260045260246000fd5b60200101907effffffffffffffffffffffffffffffffffffffffffffffffffffffffffffff1916908160001a905350600a85613d459190615b71565b9450613c9d565b8093505050505b919050565b505050565b600073ffffffffffffffffffffffffffffffffffffffff168473ffffffffffffffffffffffffffffffffffffffff161415613dcd576040517f08c379a0000000000000000000000000000000000000000000000000000000008152600401613dc4906155f7565b60405180910390fd5b613dd68361363e565b15613e16576040517f08c379a0000000000000000000000000000000000000000000000000000000008152600401613e0d90615757565b60405180910390fd5b613e2260008585613d58565b6000600b600085815260200190815260200160002090508260000151816000019080519060200190613e559291906141d3565b508260200151816001018190555082604001518160020160006101000a81548173ffffffffffffffffffffffffffffffffffffffff021916908373ffffffffffffffffffffffffffffffffffffffff16021790555082606001518160030160006101000a81548173ffffffffffffffffffffffffffffffffffffffff021916908373ffffffffffffffffffffffffffffffffffffffff160217905550806004018290806001815401808255809150506001900390600052602060002090600202016000909190919091506000820151816000019080519060200190613f3b9291906141d3565b506020820151816001015550506001600c60008773ffffffffffffffffffffffffffffffffffffffff1673ffffffffffffffffffffffffffffffffffffffff1681526020019081526020016000206000828254613f989190615b1b565b9250508190555083600d8360000151604051613fb491906154a9565b908152602001604051809103902081905550838573ffffffffffffffffffffffffffffffffffffffff16600073ffffffffffffffffffffffffffffffffffffffff167fddf252ad1be2c89b69c2b068fc378daa952ba7f163c4a11628f55a4df523b3ef60405160405180910390a45050505050565b600061404a8473ffffffffffffffffffffffffffffffffffffffff166141c0565b156141b3578373ffffffffffffffffffffffffffffffffffffffff1663150b7a026140736136ad565b8786866040518563ffffffff1660e01b815260040161409594939291906154ff565b602060405180830381600087803b1580156140af57600080fd5b505af19250505080156140e057506040513d601f19601f820116820180604052508101906140dd91906145ed565b60015b614163573d8060008114614110576040519150601f19603f3d011682016040523d82523d6000602084013e614115565b606091505b5060008151141561415b576040517f08c379a000000000000000000000000000000000000000000000000000000000815260040161415290615637565b60405180910390fd5b805181602001fd5b63150b7a0260e01b7bffffffffffffffffffffffffffffffffffffffffffffffffffffffff1916817bffffffffffffffffffffffffffffffffffffffffffffffffffffffff1916149150506141b8565b600190505b949350505050565b600080823b905060008111915050919050565b8280546141df90615ce6565b90600052602060002090601f0160209004810192826142015760008555614248565b82601f1061421a57805160ff1916838001178555614248565b82800160010185558215614248579182015b8281111561424757825182559160200191906001019061422c565b5b5090506142559190614273565b5090565b604051806040016040528060608152602001600081525090565b5b8082111561428c576000816000905550600101614274565b5090565b60006142a361429e84615a63565b615a32565b9050828152602081018484840111156142bb57600080fd5b6142c6848285615ca4565b509392505050565b60006142e16142dc84615a93565b615a32565b9050828152602081018484840111156142f957600080fd5b614304848285615ca4565b509392505050565b60008135905061431b81615e5f565b92915050565b60008135905061433081615e76565b92915050565b60008135905061434581615e8d565b92915050565b60008151905061435a81615e8d565b92915050565b600082601f83011261437157600080fd5b8135614381848260208601614290565b91505092915050565b600082601f83011261439b57600080fd5b81356143ab8482602086016142ce565b91505092915050565b6000813590506143c381615ea4565b92915050565b6000602082840312156143db57600080fd5b60006143e98482850161430c565b91505092915050565b6000806040838503121561440557600080fd5b60006144138582860161430c565b92505060206144248582860161430c565b9150509250929050565b60008060006060848603121561444357600080fd5b60006144518682870161430c565b93505060206144628682870161430c565b9250506040614473868287016143b4565b9150509250925092565b6000806000806080858703121561449357600080fd5b60006144a18782880161430c565b94505060206144b28782880161430c565b93505060406144c3878288016143b4565b925050606085013567ffffffffffffffff8111156144e057600080fd5b6144ec87828801614360565b91505092959194509250565b6000806040838503121561450b57600080fd5b60006145198582860161430c565b925050602061452a85828601614321565b9150509250929050565b6000806040838503121561454757600080fd5b60006145558582860161430c565b925050602083013567ffffffffffffffff81111561457257600080fd5b61457e8582860161438a565b9150509250929050565b6000806040838503121561459b57600080fd5b60006145a98582860161430c565b92505060206145ba858286016143b4565b9150509250929050565b6000602082840312156145d657600080fd5b60006145e484828501614336565b91505092915050565b6000602082840312156145ff57600080fd5b600061460d8482850161434b565b91505092915050565b60006020828403121561462857600080fd5b600082013567ffffffffffffffff81111561464257600080fd5b61464e8482850161438a565b91505092915050565b60008060006060848603121561466c57600080fd5b600084013567ffffffffffffffff81111561468657600080fd5b6146928682870161438a565b935050602084013567ffffffffffffffff8111156146af57600080fd5b6146bb8682870161438a565b92505060406146cc868287016143b4565b9150509250925092565b600080600080608085870312156146ec57600080fd5b600085013567ffffffffffffffff81111561470657600080fd5b6147128782880161438a565b945050602085013567ffffffffffffffff81111561472f57600080fd5b61473b8782880161438a565b935050604061474c878288016143b4565b925050606061475d8782880161430c565b91505092959194509250565b60006020828403121561477b57600080fd5b6000614789848285016143b4565b91505092915050565b600080604083850312156147a557600080fd5b60006147b3858286016143b4565b925050602083013567ffffffffffffffff8111156147d057600080fd5b6147dc8582860161438a565b9150509250929050565b600080604083850312156147f957600080fd5b6000614807858286016143b4565b9250506020614818858286016143b4565b9150509250929050565b61482b81615c30565b82525050565b61483a81615c42565b82525050565b600061484b82615ad8565b6148558185615aee565b9350614865818560208601615cb3565b61486e81615e4e565b840191505092915050565b600061488482615ae3565b61488e8185615aff565b935061489e818560208601615cb3565b6148a781615e4e565b840191505092915050565b60006148bd82615ae3565b6148c78185615b10565b93506148d7818560208601615cb3565b80840191505092915050565b600081546148f081615ce6565b6148fa8186615b10565b94506001821660008114614915576001811461492657614959565b60ff19831686528186019350614959565b61492f85615ac3565b60005b8381101561495157815481890152600182019150602081019050614932565b838801955050505b50505092915050565b600061496f601f83615aff565b91507f49646561733a206d696e7420746f20746865207a65726f2061646472657373006000830152602082019050919050565b60006149af602383615aff565b91507f49646561733a207472616e7366657220746f20746865207a65726f206164647260008301527f65737300000000000000000000000000000000000000000000000000000000006020830152604082019050919050565b6000614a15603283615aff565b91507f4552433732313a207472616e7366657220746f206e6f6e20455243373231526560008301527f63656976657220696d706c656d656e74657200000000000000000000000000006020830152604082019050919050565b6000614a7b602083615aff565b91507f49646561733a204964656120686173682063616e6e6f7420626520656d7074796000830152602082019050919050565b6000614abb601883615aff565b91507f49646561733a20617070726f766520746f2063616c6c657200000000000000006000830152602082019050919050565b6000614afb602883615aff565b91507f49646561733a206f776e657220717565727920666f72206e6f6e65786973746560008301527f6e7420746f6b656e0000000000000000000000000000000000000000000000006020830152604082019050919050565b6000614b61602983615aff565b91507f49646561733a2062616c616e636520717565727920666f7220746865207a657260008301527f6f206164647265737300000000000000000000000000000000000000000000006020830152604082019050919050565b6000614bc7602b83615aff565b91507f49646561733a20617070726f76656420717565727920666f72206e6f6e65786960008301527f7374656e7420746f6b656e0000000000000000000000000000000000000000006020830152604082019050919050565b6000614c2d601e83615aff565b91507f55736572206973206e6f74206f776e6572206f662074686520746f6b656e00006000830152602082019050919050565b6000614c6d601c83615aff565b91507f49646561733a20496465612063616e6e6f7420626520626f75676874000000006000830152602082019050919050565b6000614cad602083615aff565b91507f49646561733a2057616c6c657420616c726561647920726567697374657265646000830152602082019050919050565b6000614ced601b83615aff565b91507f49646561733a20746f6b656e20616c7265616479206d696e74656400000000006000830152602082019050919050565b6000614d2d602883615aff565b91507f49646561733a207472616e73666572206f6620746f6b656e207468617420697360008301527f206e6f74206f776e0000000000000000000000000000000000000000000000006020830152604082019050919050565b6000614d93602b83615aff565b91507f49646561733a205075626c69736820666565732073656e74206c65737320746860008301527f616e2065787065637465640000000000000000000000000000000000000000006020830152604082019050919050565b6000614df9601683615aff565b91507f57616c6c6574206e6f7420726567697374657265642e000000000000000000006000830152602082019050919050565b6000614e39602083615aff565b91507f49646561733a2049646561204e616d652063616e6e6f7420626520656d7074796000830152602082019050919050565b6000614e79602283615aff565b91507f49646561733a20557365726e616d6520616c726561647920726567697374657260008301527f65640000000000000000000000000000000000000000000000000000000000006020830152604082019050919050565b6000614edf603383615aff565b91507f4f6e6c7920636f6e7472616374206f776e657220697320617574686f72697a6560008301527f6420746f20646f207468697320616374696f6e000000000000000000000000006020830152604082019050919050565b6000614f45602f83615aff565b91507f4552433732314d657461646174613a2055524920717565727920666f72206e6f60008301527f6e6578697374656e7420746f6b656e00000000000000000000000000000000006020830152604082019050919050565b6000614fab602f83615aff565b91507f4f6e6c792070726f6772616d6d657220697320617574686f72697a656420746f60008301527f20646f207468697320616374696f6e00000000000000000000000000000000006020830152604082019050919050565b6000615011603183615aff565b91507f49646561733a207472616e7366657220746f206e6f6e2045524337323152656360008301527f656976657220696d706c656d656e7465720000000000000000000000000000006020830152604082019050919050565b6000615077602083615aff565b91507f49646561733a20617070726f76616c20746f2063757272656e74206f776e65726000830152602082019050919050565b60006150b7603783615aff565b91507f49646561733a20617070726f76652063616c6c6572206973206e6f74206f776e60008301527f6572206e6f7220617070726f76656420666f7220616c6c0000000000000000006020830152604082019050919050565b600061511d602583615aff565b91507f49646561733a2075736572206e616d6520666f7220746865207a65726f20616460008301527f64726573730000000000000000000000000000000000000000000000000000006020830152604082019050919050565b6000615183602083615aff565b91507f49646561733a2055736572204e616d652063616e6e6f7420626520656d7074796000830152602082019050919050565b60006151c3602483615aff565b91507f49646561733a2057616c6c65742063616e6e6f74206265207a65726f2061646460008301527f72657373000000000000000000000000000000000000000000000000000000006020830152604082019050919050565b6000615229602b83615aff565b91507f49646561733a206f70657261746f7220717565727920666f72206e6f6e65786960008301527f7374656e7420746f6b656e0000000000000000000000000000000000000000006020830152604082019050919050565b600061528f603183615aff565b91507f49646561733a205472616e7366657272656420455448206973206c657373207460008301527f68616e207072696365206f6620496465610000000000000000000000000000006020830152604082019050919050565b60006152f5603083615aff565b91507f49646561733a207472616e736665722063616c6c6572206973206e6f74206f7760008301527f6e6572206e6f7220617070726f766564000000000000000000000000000000006020830152604082019050919050565b600061535b602083615aff565b91507f49646561733a2049646561206861736820616c72656164792070726573656e746000830152602082019050919050565b600061539b602283615aff565b91507f49646561733a2049646561207769746820696420646f6573206e6f742065786960008301527f73740000000000000000000000000000000000000000000000000000000000006020830152604082019050919050565b6000615401601d83615aff565b91507f49646561733a20427579657220697320616c7265616479206f776e65720000006000830152602082019050919050565b6000615441602a83615aff565b91507f4f6e6c792061646d696e20697320617574686f72697a656420746f20646f207460008301527f68697320616374696f6e000000000000000000000000000000000000000000006020830152604082019050919050565b6154a381615c9a565b82525050565b60006154b582846148b2565b915081905092915050565b60006154cc82856148e3565b91506154d882846148b2565b91508190509392505050565b60006020820190506154f96000830184614822565b92915050565b60006080820190506155146000830187614822565b6155216020830186614822565b61552e604083018561549a565b81810360608301526155408184614840565b905095945050505050565b60006020820190506155606000830184614831565b92915050565b600060208201905081810360008301526155808184614879565b905092915050565b600060c08201905081810360008301526155a28189614879565b905081810360208301526155b68188614879565b90506155c5604083018761549a565b6155d2606083018661549a565b6155df6080830185614822565b6155ec60a0830184614822565b979650505050505050565b6000602082019050818103600083015261561081614962565b9050919050565b60006020820190508181036000830152615630816149a2565b9050919050565b6000602082019050818103600083015261565081614a08565b9050919050565b6000602082019050818103600083015261567081614a6e565b9050919050565b6000602082019050818103600083015261569081614aae565b9050919050565b600060208201905081810360008301526156b081614aee565b9050919050565b600060208201905081810360008301526156d081614b54565b9050919050565b600060208201905081810360008301526156f081614bba565b9050919050565b6000602082019050818103600083015261571081614c20565b9050919050565b6000602082019050818103600083015261573081614c60565b9050919050565b6000602082019050818103600083015261575081614ca0565b9050919050565b6000602082019050818103600083015261577081614ce0565b9050919050565b6000602082019050818103600083015261579081614d20565b9050919050565b600060208201905081810360008301526157b081614d86565b9050919050565b600060208201905081810360008301526157d081614dec565b9050919050565b600060208201905081810360008301526157f081614e2c565b9050919050565b6000602082019050818103600083015261581081614e6c565b9050919050565b6000602082019050818103600083015261583081614ed2565b9050919050565b6000602082019050818103600083015261585081614f38565b9050919050565b6000602082019050818103600083015261587081614f9e565b9050919050565b6000602082019050818103600083015261589081615004565b9050919050565b600060208201905081810360008301526158b08161506a565b9050919050565b600060208201905081810360008301526158d0816150aa565b9050919050565b600060208201905081810360008301526158f081615110565b9050919050565b6000602082019050818103600083015261591081615176565b9050919050565b60006020820190508181036000830152615930816151b6565b9050919050565b600060208201905081810360008301526159508161521c565b9050919050565b6000602082019050818103600083015261597081615282565b9050919050565b60006020820190508181036000830152615990816152e8565b9050919050565b600060208201905081810360008301526159b08161534e565b9050919050565b600060208201905081810360008301526159d08161538e565b9050919050565b600060208201905081810360008301526159f0816153f4565b9050919050565b60006020820190508181036000830152615a1081615434565b9050919050565b6000602082019050615a2c600083018461549a565b92915050565b6000604051905081810181811067ffffffffffffffff82111715615a5957615a58615e1f565b5b8060405250919050565b600067ffffffffffffffff821115615a7e57615a7d615e1f565b5b601f19601f8301169050602081019050919050565b600067ffffffffffffffff821115615aae57615aad615e1f565b5b601f19601f8301169050602081019050919050565b60008190508160005260206000209050919050565b600081519050919050565b600081519050919050565b600082825260208201905092915050565b600082825260208201905092915050565b600081905092915050565b6000615b2682615c9a565b9150615b3183615c9a565b9250827fffffffffffffffffffffffffffffffffffffffffffffffffffffffffffffffff03821115615b6657615b65615d92565b5b828201905092915050565b6000615b7c82615c9a565b9150615b8783615c9a565b925082615b9757615b96615dc1565b5b828204905092915050565b6000615bad82615c9a565b9150615bb883615c9a565b9250817fffffffffffffffffffffffffffffffffffffffffffffffffffffffffffffffff0483118215151615615bf157615bf0615d92565b5b828202905092915050565b6000615c0782615c9a565b9150615c1283615c9a565b925082821015615c2557615c24615d92565b5b828203905092915050565b6000615c3b82615c7a565b9050919050565b60008115159050919050565b60007fffffffff0000000000000000000000000000000000000000000000000000000082169050919050565b600073ffffffffffffffffffffffffffffffffffffffff82169050919050565b6000819050919050565b82818337600083830152505050565b60005b83811015615cd1578082015181840152602081019050615cb6565b83811115615ce0576000848401525b50505050565b60006002820490506001821680615cfe57607f821691505b60208210811415615d1257615d11615df0565b5b50919050565b6000615d2382615c9a565b91507fffffffffffffffffffffffffffffffffffffffffffffffffffffffffffffffff821415615d5657615d55615d92565b5b600182019050919050565b6000615d6c82615c9a565b9150615d7783615c9a565b925082615d8757615d86615dc1565b5b828206905092915050565b7f4e487b7100000000000000000000000000000000000000000000000000000000600052601160045260246000fd5b7f4e487b7100000000000000000000000000000000000000000000000000000000600052601260045260246000fd5b7f4e487b7100000000000000000000000000000000000000000000000000000000600052602260045260246000fd5b7f4e487b7100000000000000000000000000000000000000000000000000000000600052604160045260246000fd5b6000601f19601f8301169050919050565b615e6881615c30565b8114615e7357600080fd5b50565b615e7f81615c42565b8114615e8a57600080fd5b50565b615e9681615c4e565b8114615ea157600080fd5b50565b615ead81615c9a565b8114615eb857600080fd5b5056fea264697066735822122009b36b5125804b340949bea174262201ea6243247407a8d0899c6f21ef6e976e64736f6c63430008000033",
  "immutableReferences": {},
  "source": "// SPDX-License-Identifier: MIT\n\npragma solidity ^0.8.0;\n\nimport \"./token/ERC721/IERC721.sol\";\nimport \"./token/ERC721/extensions/IERC721Metadata.sol\";\nimport \"./token/ERC721/IERC721Receiver.sol\";\nimport \"./utils/introspection/ERC165.sol\";\nimport \"./utils/Address.sol\";\nimport \"./utils/Strings.sol\";\n\ncontract Ideas is ERC165, IERC721, IERC721Metadata {\n\n    using Address for address;\n    using Strings for uint256;\n\n    struct Idea {\n        string name;\n        uint256 price;\n        address owner;\n        address creator;\n        Version[] versions;\n    }\n\n    struct Version {\n        string hash;\n        uint256 block_time;\n    }\n\n    modifier isContractOwner() {\n        require(msg.sender == contractOwner, \"Only contract owner is authorized to do this action\");\n        _;\n    }\n\n    modifier isAdmin() {\n        require(msg.sender == admin, \"Only admin is authorized to do this action\");\n        _;\n    }\n\n    modifier isProgrammer() {\n        require(msg.sender == programmer, \"Only programmer is authorized to do this action\");\n        _;\n    }\n\n    modifier isDevops() {\n        require(msg.sender == devops, \"Only Devops is authorized to do this action\");\n        _;\n    }\n\n    modifier isRegisteredWallet(address _wallet) {\n        require(!_isEmpty(_wallets[_wallet]), \"Wallet not registered.\");\n        _;\n    }\n\n    modifier isFreeIdea(uint256 tokenId) {\n        require(_box[tokenId].price == 0, \"Not a Free Idea\");\n        _;\n    }\n\n    modifier isTokenOwnerOrApproved(address sender, uint256 tokenId) {\n        require(_isApprovedOrOwner(sender, tokenId), \"User is not owner of the token\");\n        _;\n    }\n\n    string private constant _tokenName = \"SCROLL\";\n    string private constant _tokenSymbol = \"SCRL\";\n    string private baseURI;\n\n    address contractOwner;\n    address payable treasurer;\n    address admin;\n    address programmer;\n    address devops;\n\n    uint private txn_fees_percent = 10;\n    uint256 public publish_fees;\n    uint256 private _totalIdeas = 0;\n\n    mapping(address => string) private _wallets;\n    mapping(string => address) private _users;\n\n\n    mapping(uint256 => Idea) private _box;\n    mapping(address => uint256) private _balances;\n    mapping(string => uint256) private _hashes;\n\n    mapping (uint256 => address) private _tokenApprovals;\n    mapping (address => mapping (address => bool)) private _operatorApprovals;\n\n    constructor (address _contractOwner,\n        address _treasurer,\n        address _admin,\n        address _programmer,\n        address _devops,\n        uint256 _publish_fees,\n        string memory _baseURI) {\n\n        contractOwner = _contractOwner;\n        treasurer = payable(_treasurer);\n        admin = _admin;\n        programmer = _programmer;\n        devops = _devops;\n        publish_fees = _publish_fees;\n        baseURI = _baseURI;\n    }\n\n    function name() public view virtual override returns (string memory) {\n        return _tokenName;\n    }\n\n    function symbol() public view virtual override returns (string memory) {\n        return _tokenSymbol;\n    }\n\n    function tokenURI(uint256 tokenId) public view virtual override returns (string memory) {\n        require(_exists(tokenId), \"ERC721Metadata: URI query for nonexistent token\");\n\n        return bytes(baseURI).length > 0\n        ? string(abi.encodePacked(baseURI, tokenId.toString()))\n        : '';\n    }\n\n    function getContractOwner() public view returns (address) {\n        return contractOwner;\n    }\n\n    function getTreasurer() public view returns (address) {\n        return treasurer;\n    }\n\n    function getAdmin() public view returns (address) {\n        return admin;\n    }\n\n    function getDevops() public view returns (address) {\n        return devops;\n    }\n\n    function set_txn_fees_percent(uint _txn_fees_percent) public virtual isAdmin {\n        txn_fees_percent = _txn_fees_percent;\n    }\n\n    function set_publish_fees(uint _publish_fees) public virtual isAdmin {\n        publish_fees = _publish_fees;\n    }\n\n    function set_contract_owner(address _contractOwner) public virtual isContractOwner {\n        contractOwner = _contractOwner;\n    }\n\n    function set_treasurer(address _treasurer) public virtual isContractOwner {\n        treasurer = payable(_treasurer);\n    }\n\n    function set_admin(address _admin) public virtual isContractOwner {\n        admin = _admin;\n    }\n\n    function set_programmer(address _programmer) public virtual isContractOwner {\n        programmer = _programmer;\n    }\n\n    function set_devops(address _devops) public virtual isContractOwner {\n        devops = _devops;\n    }\n\n    function set_baseURI(string memory _baseURI) public virtual isAdmin {\n        baseURI = _baseURI;\n    }\n\n    function set_price(uint256 tokenId, uint256 _price) public virtual isTokenOwnerOrApproved(_msgSender(), tokenId) {\n        Idea storage idea = _box[tokenId];\n        require(!_isEmpty(idea.name), \"Ideas: Idea with id does not exist\");\n        idea.price = _price;\n    }\n\n    function register_user(address _address, string memory _name) payable public virtual isProgrammer {\n        require(!_isEmpty(_name), \"Ideas: User Name cannot be empty\");\n        require(_address != address(0), \"Ideas: Wallet cannot be zero address\");\n        require(_isEmpty(_wallets[_address]), \"Ideas: Wallet already registered\");\n        require(_users[_name] == address(0), \"Ideas: Username already registered\");\n        _wallets[_address] = _name;\n        _users[_name] = _address;\n    }\n\n    function publish(string memory _name, string memory hash, uint256 price) payable public virtual isRegisteredWallet(_msgSender()) returns (uint256) {\n        require(!_isEmpty(_name), \"Ideas: Idea Name cannot be empty\");\n        require(!_isEmpty(hash), \"Ideas: Idea hash cannot be empty\");\n        require(_hashes[hash] == 0, \"Ideas: Idea hash already present\");\n        require(msg.value >= publish_fees, \"Ideas: Publish fees sent less than expected\");\n\n        _totalIdeas += 1;\n        address creator = _msgSender();\n        _safeMint(creator, _totalIdeas, Idea(_name, price, creator, creator, new Version[](0)), Version(hash, block.timestamp));\n        return _totalIdeas;\n    }\n\n    function transferToTreasurer(uint256 amount) public virtual isAdmin {\n        treasurer.transfer(amount);\n    }\n\n    function publishOnBehalf(string memory _name, string memory hash, uint256 price, address creator) public virtual isProgrammer isRegisteredWallet(creator) returns (uint256) {\n        require(!_isEmpty(_name), \"Ideas: Idea Name cannot be empty\");\n        require(!_isEmpty(hash), \"Ideas: Idea hash cannot be empty\");\n        require(_hashes[hash] == 0, \"Ideas: Idea hash already present\");\n        _totalIdeas += 1;\n        _safeMint(creator, _totalIdeas, Idea(_name, price, creator, creator, new Version[](0)), Version(hash, block.timestamp));\n        return _totalIdeas;\n    }\n\n    function extend(uint256 tokenId, string memory hash) payable public virtual isTokenOwnerOrApproved(_msgSender(), tokenId) {\n        require(!_isEmpty(hash), \"Ideas: Idea hash cannot be empty\");\n        require(_hashes[hash] == 0, \"Ideas: Idea hash already present\");\n        require(msg.value >= publish_fees, \"Ideas: Publish fees sent less than expected\");\n        require(!_isEmpty(_box[tokenId].name), \"Ideas: Idea with id does not exist\");\n\n        Version memory version = Version(hash, block.timestamp);\n        _box[tokenId].versions.push(version);\n    }\n\n    function buy(uint256 tokenId) payable public virtual {\n        Idea memory idea = _box[tokenId];\n        require(!_isEmpty(idea.name), \"Ideas: Idea with id does not exist\");\n        require(idea.owner != msg.sender, \"Ideas: Buyer is already owner\");\n        require(idea.price > 0, \"Ideas: Idea cannot be bought\");\n        require(msg.value >= idea.price, \"Ideas: Transferred ETH is less than price of Idea\");\n        address previous_owner = idea.owner;\n        _safeTransfer(previous_owner, _msgSender(), tokenId, \"\");\n        uint256 txn_fees = (txn_fees_percent * msg.value) / 100;\n        payable(previous_owner).transfer(idea.price - txn_fees);\n        if (msg.value > idea.price) {\n            payable(_msgSender()).transfer(msg.value - idea.price);\n        }\n    }\n\n    function safeTransfer(address to, uint256 tokenId) public virtual {\n        safeTransferFrom(_msgSender(), to, tokenId);\n    }\n\n    function safeTransferFrom(address from, address to, uint256 tokenId) public virtual override {\n        safeTransferFrom(from, to, tokenId, \"\");\n    }\n\n    function safeTransferFrom(address from, address to, uint256 tokenId, bytes memory _data) public virtual override {\n        require(_isApprovedOrOwner(_msgSender(), tokenId), \"Ideas: transfer caller is not owner nor approved\");\n        _safeTransfer(from, to, tokenId, _data);\n    }\n\n    function transferFrom(address from, address to, uint256 tokenId) public virtual override {\n        require(_isApprovedOrOwner(_msgSender(), tokenId), \"Ideas: transfer caller is not owner nor approved\");\n        _transfer(from, to, tokenId);\n    }\n\n    function balanceOf(address owner) public view virtual override returns (uint256) {\n        require(owner != address(0), \"Ideas: balance query for the zero address\");\n        return _balances[owner];\n    }\n\n    function ownerOf(uint256 tokenId) public view virtual override returns (address) {\n        address owner = _box[tokenId].owner;\n        require(owner != address(0), \"Ideas: owner query for nonexistent token\");\n        return owner;\n    }\n\n    function ownerOfHash(string memory hash) public view virtual returns (address) {\n        return ownerOf(_hashes[hash]);\n    }\n\n    function ideaOfHash(string memory hash) public view virtual returns (uint256) {\n        return _hashes[hash];\n    }\n\n    function showSender() public view returns (address) {\n        return msg.sender;\n    }\n\n    function get_txn_fees_percent() public view isAdmin returns (uint) {\n        return txn_fees_percent;\n    }\n\n    function totalTokens() public view returns (uint256) {\n        return _totalIdeas;\n    }\n\n    function metadataOf(uint256 id) public view virtual returns (string memory _name,\n        string memory hash,\n        uint256 block_time,\n        uint256 price,\n        address owner,\n        address creator) {\n        return metadataOfVersion(id, 0);\n    }\n\n    function metadataOfLatest(uint256 id) public view virtual returns (string memory _name,\n        string memory hash,\n        uint256 block_time,\n        uint256 price,\n        address owner,\n        address creator) {\n        Idea memory idea = _box[id];\n        uint256 latest = idea.versions.length;\n        return metadataOfVersion(id, latest - 1);\n    }\n\n    function metadataOfVersion(uint256 id, uint256 version) public view virtual returns\n    (   string memory _name,\n        string memory hash,\n        uint256 block_time,\n        uint256 price,\n        address owner,\n        address creator) {\n        Idea memory idea = _box[id];\n        Version memory ver = idea.versions[version];\n        return (idea.name, ver.hash, ver.block_time, idea.price, idea.owner, idea.creator);\n    }\n\n    function userNameOf(address wallet) public view virtual returns (string memory) {\n        require(wallet != address(0), \"Ideas: user name for the zero address\");\n        return _wallets[wallet];\n    }\n\n    function walletOf(string memory _user) public view virtual returns (address) {\n        return _users[_user];\n    }\n\n    function _safeMint(address to, uint256 tokenId, Idea memory idea, Version memory version) internal virtual {\n        _mint(to, tokenId, idea, version);\n        require(_checkOnERC721Received(address(0), to, tokenId, \"\"), \"Ideas: transfer to non ERC721Receiver implementer\");\n    }\n\n    function _mint(address to, uint256 tokenId, Idea memory idea, Version memory version) internal virtual {\n        require(to != address(0), \"Ideas: mint to the zero address\");\n        require(!_exists(tokenId), \"Ideas: token already minted\");\n\n        _beforeTokenTransfer(address(0), to, tokenId);\n        Idea storage stored_idea = _box[tokenId];\n        stored_idea.name = idea.name;\n        stored_idea.price = idea.price;\n        stored_idea.owner = idea.owner;\n        stored_idea.creator = idea.creator;\n        stored_idea.versions.push(version);\n        _balances[to] += 1;\n        _hashes[version.hash] = tokenId;\n        emit Transfer(address(0), to, tokenId);\n    }\n\n    function _safeTransfer(address from, address to, uint256 tokenId, bytes memory _data) internal virtual {\n        _transfer(from, to, tokenId);\n        require(_checkOnERC721Received(from, to, tokenId, _data), \"Ideas: transfer to non ERC721Receiver implementer\");\n    }\n\n    function _transfer(address from, address to, uint256 tokenId) internal virtual {\n        Idea storage idea = _box[tokenId];\n\n        require(idea.owner == from, \"Ideas: transfer of token that is not own\");\n        require(to != address(0), \"Ideas: transfer to the zero address\");\n\n        _beforeTokenTransfer(from, to, tokenId);\n        _approve(address(0), tokenId);\n        idea.owner = to;\n        delete(idea.price);\n        _balances[to] += 1;\n        _balances[from] -= 1;\n        emit Transfer(from, to, tokenId);\n    }\n\n    function _burn(uint256 tokenId) internal virtual {\n        Idea memory idea = _box[tokenId];\n        address owner = idea.owner;\n\n        _beforeTokenTransfer(owner, address(0), tokenId);\n\n        _approve(address(0), tokenId);\n        delete _box[tokenId];\n        _balances[owner] -= 1;\n        for(uint256 i=0; i<idea.versions.length; i++) {\n            delete(_hashes[idea.versions[i].hash]);\n        }\n        emit Transfer(owner, address(0), tokenId);\n    }\n\n    function _exists(uint256 tokenId) internal view virtual returns (bool) {\n        return _box[tokenId].owner != address(0);\n    }\n\n    function _msgSender() internal view virtual returns (address) {\n        return msg.sender;\n    }\n\n    function _isEmpty(string memory str) private pure returns (bool) {\n        return bytes(str).length == 0;\n    }\n\n    /*\n    * All Approval related methods\n    * These methods are responsible for delegating transaction rights\n    * to a different account\n    */\n\n    function approve(address to, uint256 tokenId) public virtual override {\n        address owner = ownerOf(tokenId);\n        require(to != owner, \"Ideas: approval to current owner\");\n\n        require(_msgSender() == owner || isApprovedForAll(owner, _msgSender()),\n            \"Ideas: approve caller is not owner nor approved for all\"\n        );\n\n        _approve(to, tokenId);\n    }\n\n    function getApproved(uint256 tokenId) public view virtual override returns (address) {\n        require(_exists(tokenId), \"Ideas: approved query for nonexistent token\");\n\n        return _tokenApprovals[tokenId];\n    }\n\n    function setApprovalForAll(address operator, bool approved) public virtual override {\n        require(operator != _msgSender(), \"Ideas: approve to caller\");\n\n        _operatorApprovals[_msgSender()][operator] = approved;\n        emit ApprovalForAll(_msgSender(), operator, approved);\n    }\n\n    function isApprovedForAll(address owner, address operator) public view virtual override returns (bool) {\n        return _operatorApprovals[owner][operator];\n    }\n\n    function _isApprovedOrOwner(address spender, uint256 tokenId) internal view virtual returns (bool) {\n        require(_exists(tokenId), \"Ideas: operator query for nonexistent token\");\n        address owner = ownerOf(tokenId);\n        return (spender == owner || getApproved(tokenId) == spender || isApprovedForAll(owner, spender));\n    }\n\n    function _approve(address to, uint256 tokenId) internal virtual {\n        _tokenApprovals[tokenId] = to;\n        emit Approval(ownerOf(tokenId), to, tokenId);\n    }\n\n    function supportsInterface(bytes4 interfaceId) public view virtual override(ERC165, IERC165) returns (bool) {\n        return interfaceId == type(IERC721).interfaceId\n        || super.supportsInterface(interfaceId);\n    }\n\n    function _beforeTokenTransfer(address from, address to, uint256 tokenId) internal virtual { }\n\n    function _checkOnERC721Received(address from, address to, uint256 tokenId, bytes memory _data)\n    private returns (bool)\n    {\n        if (to.isContract()) {\n        try IERC721Receiver(to).onERC721Received(_msgSender(), from, tokenId, _data) returns (bytes4 retval) {\n        return retval == IERC721Receiver(to).onERC721Received.selector;\n        } catch (bytes memory reason) {\n        if (reason.length == 0) {\n        revert(\"ERC721: transfer to non ERC721Receiver implementer\");\n        } else {\n        assembly {\n        revert(add(32, reason), mload(reason))\n        }\n        }\n        }\n        } else {\n            return true;\n        }\n    }\n\n}\n",
  "sourcePath": "/Users/ssanthosh/code/block_chain/nft_test/contracts/Ideas.sol",
  "compiler": {
    "name": "solc",
    "version": "0.8.0+commit.c7dfd78e.Emscripten.clang"
  },
  "schemaVersion": "3.3.4",
  "updatedAt": "2021-06-19T08:12:10.818Z",
  "networkType": "ethereum",
  "devdoc": {
    "kind": "dev",
    "methods": {
      "approve(address,uint256)": {
        "details": "Gives permission to `to` to transfer `tokenId` token to another account. The approval is cleared when the token is transferred. Only a single account can be approved at a time, so approving the zero address clears previous approvals. Requirements: - The caller must own the token or be an approved operator. - `tokenId` must exist. Emits an {Approval} event."
      },
      "balanceOf(address)": {
        "details": "Returns the number of tokens in ``owner``'s account."
      },
      "getApproved(uint256)": {
        "details": "Returns the account approved for `tokenId` token. Requirements: - `tokenId` must exist."
      },
      "isApprovedForAll(address,address)": {
        "details": "Returns if the `operator` is allowed to manage all of the assets of `owner`. See {setApprovalForAll}"
      },
      "name()": {
        "details": "Returns the token collection name."
      },
      "ownerOf(uint256)": {
        "details": "Returns the owner of the `tokenId` token. Requirements: - `tokenId` must exist."
      },
      "safeTransferFrom(address,address,uint256)": {
        "details": "Safely transfers `tokenId` token from `from` to `to`, checking first that contract recipients are aware of the ERC721 protocol to prevent tokens from being forever locked. Requirements: - `from` cannot be the zero address. - `to` cannot be the zero address. - `tokenId` token must exist and be owned by `from`. - If the caller is not `from`, it must be have been allowed to move this token by either {approve} or {setApprovalForAll}. - If `to` refers to a smart contract, it must implement {IERC721Receiver-onERC721Received}, which is called upon a safe transfer. Emits a {Transfer} event."
      },
      "symbol()": {
        "details": "Returns the token collection symbol."
      },
      "tokenURI(uint256)": {
        "details": "Returns the Uniform Resource Identifier (URI) for `tokenId` token."
      },
      "transferFrom(address,address,uint256)": {
        "details": "Transfers `tokenId` token from `from` to `to`. WARNING: Usage of this method is discouraged, use {safeTransferFrom} whenever possible. Requirements: - `from` cannot be the zero address. - `to` cannot be the zero address. - `tokenId` token must be owned by `from`. - If the caller is not `from`, it must be approved to move this token by either {approve} or {setApprovalForAll}. Emits a {Transfer} event."
      }
    },
    "version": 1
  },
  "userdoc": {
    "kind": "user",
    "methods": {},
    "version": 1
  }
}